{
  "address": "0x5FbDB2315678afecb367f032d93F642f64180aa3",
  "abi": [
    {
      "inputs": [
        {
          "internalType": "string",
          "name": "_initialTokenURI",
          "type": "string"
        }
      ],
      "stateMutability": "nonpayable",
      "type": "constructor"
    },
    {
      "inputs": [],
      "name": "Admin__NotAuthorized",
      "type": "error"
    },
    {
      "inputs": [],
      "name": "Admin__TransferNotAllowed",
      "type": "error"
    },
    {
      "inputs": [],
      "name": "Admin__UserAlreadyExists",
      "type": "error"
    },
    {
      "anonymous": false,
      "inputs": [
        {
          "indexed": true,
          "internalType": "address",
          "name": "_userAddress",
          "type": "address"
        },
        {
          "indexed": true,
          "internalType": "uint256",
          "name": "_entryTokenId",
          "type": "uint256"
        }
      ],
      "name": "Admin__UserRegistered",
      "type": "event"
    },
    {
      "anonymous": false,
      "inputs": [
        {
          "indexed": true,
          "internalType": "address",
          "name": "owner",
          "type": "address"
        },
        {
          "indexed": true,
          "internalType": "address",
          "name": "approved",
          "type": "address"
        },
        {
          "indexed": true,
          "internalType": "uint256",
          "name": "tokenId",
          "type": "uint256"
        }
      ],
      "name": "Approval",
      "type": "event"
    },
    {
      "anonymous": false,
      "inputs": [
        {
          "indexed": true,
          "internalType": "address",
          "name": "owner",
          "type": "address"
        },
        {
          "indexed": true,
          "internalType": "address",
          "name": "operator",
          "type": "address"
        },
        {
          "indexed": false,
          "internalType": "bool",
          "name": "approved",
          "type": "bool"
        }
      ],
      "name": "ApprovalForAll",
      "type": "event"
    },
    {
      "anonymous": false,
      "inputs": [
        {
          "indexed": true,
          "internalType": "address",
          "name": "from",
          "type": "address"
        },
        {
          "indexed": true,
          "internalType": "address",
          "name": "to",
          "type": "address"
        },
        {
          "indexed": true,
          "internalType": "uint256",
          "name": "tokenId",
          "type": "uint256"
        }
      ],
      "name": "Transfer",
      "type": "event"
    },
    {
      "inputs": [
        {
          "internalType": "address",
          "name": "to",
          "type": "address"
        },
        {
          "internalType": "uint256",
          "name": "tokenId",
          "type": "uint256"
        }
      ],
      "name": "approve",
      "outputs": [],
      "stateMutability": "nonpayable",
      "type": "function"
    },
    {
      "inputs": [
        {
          "internalType": "address",
          "name": "owner",
          "type": "address"
        }
      ],
      "name": "balanceOf",
      "outputs": [
        {
          "internalType": "uint256",
          "name": "",
          "type": "uint256"
        }
      ],
      "stateMutability": "view",
      "type": "function"
    },
    {
      "inputs": [
        {
          "internalType": "uint256",
          "name": "tokenId",
          "type": "uint256"
        }
      ],
      "name": "getApproved",
      "outputs": [
        {
          "internalType": "address",
          "name": "",
          "type": "address"
        }
      ],
      "stateMutability": "view",
      "type": "function"
    },
    {
      "inputs": [
        {
          "internalType": "address",
          "name": "_userAddress",
          "type": "address"
        }
      ],
      "name": "getTokenId",
      "outputs": [
        {
          "internalType": "uint256",
          "name": "",
          "type": "uint256"
        }
      ],
      "stateMutability": "view",
      "type": "function"
    },
    {
      "inputs": [
        {
          "internalType": "address",
          "name": "owner",
          "type": "address"
        },
        {
          "internalType": "address",
          "name": "operator",
          "type": "address"
        }
      ],
      "name": "isApprovedForAll",
      "outputs": [
        {
          "internalType": "bool",
          "name": "",
          "type": "bool"
        }
      ],
      "stateMutability": "view",
      "type": "function"
    },
    {
      "inputs": [],
      "name": "name",
      "outputs": [
        {
          "internalType": "string",
          "name": "",
          "type": "string"
        }
      ],
      "stateMutability": "view",
      "type": "function"
    },
    {
      "inputs": [
        {
          "internalType": "uint256",
          "name": "tokenId",
          "type": "uint256"
        }
      ],
      "name": "ownerOf",
      "outputs": [
        {
          "internalType": "address",
          "name": "",
          "type": "address"
        }
      ],
      "stateMutability": "view",
      "type": "function"
    },
    {
      "inputs": [],
      "name": "registerUser",
      "outputs": [],
      "stateMutability": "nonpayable",
      "type": "function"
    },
    {
      "inputs": [
        {
          "internalType": "address",
          "name": "from",
          "type": "address"
        },
        {
          "internalType": "address",
          "name": "to",
          "type": "address"
        },
        {
          "internalType": "uint256",
          "name": "tokenId",
          "type": "uint256"
        }
      ],
      "name": "safeTransferFrom",
      "outputs": [],
      "stateMutability": "pure",
      "type": "function"
    },
    {
      "inputs": [
        {
          "internalType": "address",
          "name": "from",
          "type": "address"
        },
        {
          "internalType": "address",
          "name": "to",
          "type": "address"
        },
        {
          "internalType": "uint256",
          "name": "tokenId",
          "type": "uint256"
        },
        {
          "internalType": "bytes",
          "name": "data",
          "type": "bytes"
        }
      ],
      "name": "safeTransferFrom",
      "outputs": [],
      "stateMutability": "pure",
      "type": "function"
    },
    {
      "inputs": [
        {
          "internalType": "address",
          "name": "operator",
          "type": "address"
        },
        {
          "internalType": "bool",
          "name": "approved",
          "type": "bool"
        }
      ],
      "name": "setApprovalForAll",
      "outputs": [],
      "stateMutability": "nonpayable",
      "type": "function"
    },
    {
      "inputs": [
        {
          "internalType": "bytes4",
          "name": "interfaceId",
          "type": "bytes4"
        }
      ],
      "name": "supportsInterface",
      "outputs": [
        {
          "internalType": "bool",
          "name": "",
          "type": "bool"
        }
      ],
      "stateMutability": "view",
      "type": "function"
    },
    {
      "inputs": [],
      "name": "symbol",
      "outputs": [
        {
          "internalType": "string",
          "name": "",
          "type": "string"
        }
      ],
      "stateMutability": "view",
      "type": "function"
    },
    {
      "inputs": [
        {
          "internalType": "uint256",
          "name": "tokenId",
          "type": "uint256"
        }
      ],
      "name": "tokenURI",
      "outputs": [
        {
          "internalType": "string",
          "name": "",
          "type": "string"
        }
      ],
      "stateMutability": "view",
      "type": "function"
    },
    {
      "inputs": [
        {
          "internalType": "address",
          "name": "from",
          "type": "address"
        },
        {
          "internalType": "address",
          "name": "to",
          "type": "address"
        },
        {
          "internalType": "uint256",
          "name": "tokenId",
          "type": "uint256"
        }
      ],
      "name": "transferFrom",
      "outputs": [],
      "stateMutability": "pure",
      "type": "function"
    },
    {
      "inputs": [
        {
          "internalType": "string",
          "name": "_newTokenURI",
          "type": "string"
        },
        {
          "internalType": "uint256",
          "name": "_entryTokenId",
          "type": "uint256"
        }
      ],
      "name": "updateTokenURI",
      "outputs": [],
      "stateMutability": "nonpayable",
      "type": "function"
    }
  ],
  "transactionHash": "0x8963325a35b0a0e913a0f6fa8c49ca8c3b2a08b0b1775b2a3d0fb5be6885cecf",
  "args": [
    "https://ipfs.io/ipfs/QmQdqJauULBbLG74rS5gWpdczjUatsNyxfCU8n4EMXjjff"
  ],
  "numDeployments": 1,
  "solcInputHash": "4370cc5852990c9662ba9f52cd7251f4",
  "bytecode": "0x60a060405260006008553480156200001657600080fd5b5060405162002b3a38038062002b3a83398181016040528101906200003c919062000261565b6040518060400160405280600a81526020017f456e747279546f6b656e000000000000000000000000000000000000000000008152506040518060400160405280600381526020017f45544e00000000000000000000000000000000000000000000000000000000008152508160009080519060200190620000c092919062000133565b508060019080519060200190620000d992919062000133565b5050503373ffffffffffffffffffffffffffffffffffffffff1660808173ffffffffffffffffffffffffffffffffffffffff1660601b8152505080600990805190602001906200012b92919062000133565b505062000436565b828054620001419062000347565b90600052602060002090601f016020900481019282620001655760008555620001b1565b82601f106200018057805160ff1916838001178555620001b1565b82800160010185558215620001b1579182015b82811115620001b057825182559160200191906001019062000193565b5b509050620001c09190620001c4565b5090565b5b80821115620001df576000816000905550600101620001c5565b5090565b6000620001fa620001f484620002db565b620002b2565b90508281526020810184848401111562000219576200021862000416565b5b6200022684828562000311565b509392505050565b600082601f83011262000246576200024562000411565b5b815162000258848260208601620001e3565b91505092915050565b6000602082840312156200027a576200027962000420565b5b600082015167ffffffffffffffff8111156200029b576200029a6200041b565b5b620002a9848285016200022e565b91505092915050565b6000620002be620002d1565b9050620002cc82826200037d565b919050565b6000604051905090565b600067ffffffffffffffff821115620002f957620002f8620003e2565b5b620003048262000425565b9050602081019050919050565b60005b838110156200033157808201518184015260208101905062000314565b8381111562000341576000848401525b50505050565b600060028204905060018216806200036057607f821691505b60208210811415620003775762000376620003b3565b5b50919050565b620003888262000425565b810181811067ffffffffffffffff82111715620003aa57620003a9620003e2565b5b80604052505050565b7f4e487b7100000000000000000000000000000000000000000000000000000000600052602260045260246000fd5b7f4e487b7100000000000000000000000000000000000000000000000000000000600052604160045260246000fd5b600080fd5b600080fd5b600080fd5b600080fd5b6000601f19601f8301169050919050565b60805160601c6126e562000455600039600061099e01526126e56000f3fe608060405234801561001057600080fd5b50600436106101005760003560e01c806370a0823111610097578063b88d4fde11610066578063b88d4fde14610297578063c87b56dd146102b3578063e985e9c5146102e3578063f15376861461031357610100565b806370a082311461021157806395d89b4114610241578063a06c794a1461025f578063a22cb4651461027b57610100565b806323b872dd116100d357806323b872dd1461019f57806342842e0e146101bb5780634d3820eb146101d75780636352211e146101e157610100565b806301ffc9a71461010557806306fdde0314610135578063081812fc14610153578063095ea7b314610183575b600080fd5b61011f600480360381019061011a9190611ca3565b610343565b60405161012c9190612020565b60405180910390f35b61013d610425565b60405161014a919061203b565b60405180910390f35b61016d60048036038101906101689190611d5d565b6104b7565b60405161017a9190611fb9565b60405180910390f35b61019d60048036038101906101989190611c63565b6104fd565b005b6101b960048036038101906101b49190611b48565b610615565b005b6101d560048036038101906101d09190611b48565b610647565b005b6101df610679565b005b6101fb60048036038101906101f69190611d5d565b6107cb565b6040516102089190611fb9565b60405180910390f35b61022b60048036038101906102269190611adb565b610852565b604051610238919061217d565b60405180910390f35b61024961090a565b604051610256919061203b565b60405180910390f35b61027960048036038101906102749190611cfd565b61099c565b005b61029560048036038101906102909190611c23565b610a74565b005b6102b160048036038101906102ac9190611b9b565b610a8a565b005b6102cd60048036038101906102c89190611d5d565b610abc565b6040516102da919061203b565b60405180910390f35b6102fd60048036038101906102f89190611b08565b610bcf565b60405161030a9190612020565b60405180910390f35b61032d60048036038101906103289190611adb565b610c63565b60405161033a919061217d565b60405180910390f35b60007f80ac58cd000000000000000000000000000000000000000000000000000000007bffffffffffffffffffffffffffffffffffffffffffffffffffffffff1916827bffffffffffffffffffffffffffffffffffffffffffffffffffffffff1916148061040e57507f5b5e139f000000000000000000000000000000000000000000000000000000007bffffffffffffffffffffffffffffffffffffffffffffffffffffffff1916827bffffffffffffffffffffffffffffffffffffffffffffffffffffffff1916145b8061041e575061041d82610cac565b5b9050919050565b6060600080546104349061230c565b80601f01602080910402602001604051908101604052809291908181526020018280546104609061230c565b80156104ad5780601f10610482576101008083540402835291602001916104ad565b820191906000526020600020905b81548152906001019060200180831161049057829003601f168201915b5050505050905090565b60006104c282610d16565b6004600083815260200190815260200160002060009054906101000a900473ffffffffffffffffffffffffffffffffffffffff169050919050565b6000610508826107cb565b90508073ffffffffffffffffffffffffffffffffffffffff168373ffffffffffffffffffffffffffffffffffffffff161415610579576040517f08c379a00000000000000000000000000000000000000000000000000000000081526004016105709061213d565b60405180910390fd5b8073ffffffffffffffffffffffffffffffffffffffff16610598610d61565b73ffffffffffffffffffffffffffffffffffffffff1614806105c757506105c6816105c1610d61565b610bcf565b5b610606576040517f08c379a00000000000000000000000000000000000000000000000000000000081526004016105fd9061215d565b60405180910390fd5b6106108383610d69565b505050565b6040517f1e2c923900000000000000000000000000000000000000000000000000000000815260040160405180910390fd5b6040517f1e2c923900000000000000000000000000000000000000000000000000000000815260040160405180910390fd5b610681610e22565b60016008600082825461069491906121db565b92505081905550600854600760003373ffffffffffffffffffffffffffffffffffffffff1673ffffffffffffffffffffffffffffffffffffffff168152602001908152602001600020819055506106ed33600854610e9d565b610783600854600980546107009061230c565b80601f016020809104026020016040519081016040528092919081815260200182805461072c9061230c565b80156107795780601f1061074e57610100808354040283529160200191610779565b820191906000526020600020905b81548152906001019060200180831161075c57829003601f168201915b5050505050610ebb565b6008543373ffffffffffffffffffffffffffffffffffffffff167f59501c606b966b5a1619adee8a0a537ea4acb4962bd2846437bf82a8755c126760405160405180910390a3565b6000806107d783610f2f565b9050600073ffffffffffffffffffffffffffffffffffffffff168173ffffffffffffffffffffffffffffffffffffffff161415610849576040517f08c379a00000000000000000000000000000000000000000000000000000000081526004016108409061211d565b60405180910390fd5b80915050919050565b60008073ffffffffffffffffffffffffffffffffffffffff168273ffffffffffffffffffffffffffffffffffffffff1614156108c3576040517f08c379a00000000000000000000000000000000000000000000000000000000081526004016108ba906120bd565b60405180910390fd5b600360008373ffffffffffffffffffffffffffffffffffffffff1673ffffffffffffffffffffffffffffffffffffffff168152602001908152602001600020549050919050565b6060600180546109199061230c565b80601f01602080910402602001604051908101604052809291908181526020018280546109459061230c565b80156109925780601f1061096757610100808354040283529160200191610992565b820191906000526020600020905b81548152906001019060200180831161097557829003601f168201915b5050505050905090565b7f000000000000000000000000000000000000000000000000000000000000000073ffffffffffffffffffffffffffffffffffffffff163373ffffffffffffffffffffffffffffffffffffffff1614610a21576040517ff2b75e8d00000000000000000000000000000000000000000000000000000000815260040160405180910390fd5b610a6f8184848080601f016020809104026020016040519081016040528093929190818152602001838380828437600081840152601f19601f82011690508083019250505050505050610ebb565b505050565b610a86610a7f610d61565b8383610f6c565b5050565b6040517f1e2c923900000000000000000000000000000000000000000000000000000000815260040160405180910390fd5b6060610ac782610d16565b6000600660008481526020019081526020016000208054610ae79061230c565b80601f0160208091040260200160405190810160405280929190818152602001828054610b139061230c565b8015610b605780601f10610b3557610100808354040283529160200191610b60565b820191906000526020600020905b815481529060010190602001808311610b4357829003601f168201915b505050505090506000610b716110d9565b9050600081511415610b87578192505050610bca565b600082511115610bbc578082604051602001610ba4929190611f95565b60405160208183030381529060405292505050610bca565b610bc5846110f0565b925050505b919050565b6000600560008473ffffffffffffffffffffffffffffffffffffffff1673ffffffffffffffffffffffffffffffffffffffff16815260200190815260200160002060008373ffffffffffffffffffffffffffffffffffffffff1673ffffffffffffffffffffffffffffffffffffffff16815260200190815260200160002060009054906101000a900460ff16905092915050565b6000600760008373ffffffffffffffffffffffffffffffffffffffff1673ffffffffffffffffffffffffffffffffffffffff168152602001908152602001600020549050919050565b60007f01ffc9a7000000000000000000000000000000000000000000000000000000007bffffffffffffffffffffffffffffffffffffffffffffffffffffffff1916827bffffffffffffffffffffffffffffffffffffffffffffffffffffffff1916149050919050565b610d1f81611158565b610d5e576040517f08c379a0000000000000000000000000000000000000000000000000000000008152600401610d559061211d565b60405180910390fd5b50565b600033905090565b816004600083815260200190815260200160002060006101000a81548173ffffffffffffffffffffffffffffffffffffffff021916908373ffffffffffffffffffffffffffffffffffffffff160217905550808273ffffffffffffffffffffffffffffffffffffffff16610ddc836107cb565b73ffffffffffffffffffffffffffffffffffffffff167f8c5be1e5ebec7d5bd14f71427d1e84f3dd0314c0f7b2291e5b200ac8c7c3b92560405160405180910390a45050565b6000600760003373ffffffffffffffffffffffffffffffffffffffff1673ffffffffffffffffffffffffffffffffffffffff1681526020019081526020016000205414610e9b576040517fbc64be8b00000000000000000000000000000000000000000000000000000000815260040160405180910390fd5b565b610eb7828260405180602001604052806000815250611199565b5050565b610ec482611158565b610f03576040517f08c379a0000000000000000000000000000000000000000000000000000000008152600401610efa906120dd565b60405180910390fd5b80600660008481526020019081526020016000209080519060200190610f2a929190611923565b505050565b60006002600083815260200190815260200160002060009054906101000a900473ffffffffffffffffffffffffffffffffffffffff169050919050565b8173ffffffffffffffffffffffffffffffffffffffff168373ffffffffffffffffffffffffffffffffffffffff161415610fdb576040517f08c379a0000000000000000000000000000000000000000000000000000000008152600401610fd29061209d565b60405180910390fd5b80600560008573ffffffffffffffffffffffffffffffffffffffff1673ffffffffffffffffffffffffffffffffffffffff16815260200190815260200160002060008473ffffffffffffffffffffffffffffffffffffffff1673ffffffffffffffffffffffffffffffffffffffff16815260200190815260200160002060006101000a81548160ff0219169083151502179055508173ffffffffffffffffffffffffffffffffffffffff168373ffffffffffffffffffffffffffffffffffffffff167f17307eab39ab6107e8899845ad3d59bd9653f200f220920489ca2b5937696c31836040516110cc9190612020565b60405180910390a3505050565b606060405180602001604052806000815250905090565b60606110fb82610d16565b60006111056110d9565b905060008151116111255760405180602001604052806000815250611150565b8061112f846111f4565b604051602001611140929190611f95565b6040516020818303038152906040525b915050919050565b60008073ffffffffffffffffffffffffffffffffffffffff1661117a83610f2f565b73ffffffffffffffffffffffffffffffffffffffff1614159050919050565b6111a383836112cc565b6111b060008484846114ea565b6111ef576040517f08c379a00000000000000000000000000000000000000000000000000000000081526004016111e69061205d565b60405180910390fd5b505050565b60606000600161120384611681565b01905060008167ffffffffffffffff811115611222576112216123cb565b5b6040519080825280601f01601f1916602001820160405280156112545781602001600182028036833780820191505090505b509050600082602001820190505b6001156112c1578080600190039150507f3031323334353637383961626364656600000000000000000000000000000000600a86061a8153600a85816112ab576112aa61236d565b5b04945060008514156112bc576112c1565b611262565b819350505050919050565b600073ffffffffffffffffffffffffffffffffffffffff168273ffffffffffffffffffffffffffffffffffffffff16141561133c576040517f08c379a0000000000000000000000000000000000000000000000000000000008152600401611333906120fd565b60405180910390fd5b61134581611158565b15611385576040517f08c379a000000000000000000000000000000000000000000000000000000000815260040161137c9061207d565b60405180910390fd5b6113936000838360016117d4565b61139c81611158565b156113dc576040517f08c379a00000000000000000000000000000000000000000000000000000000081526004016113d39061207d565b60405180910390fd5b6001600360008473ffffffffffffffffffffffffffffffffffffffff1673ffffffffffffffffffffffffffffffffffffffff16815260200190815260200160002060008282540192505081905550816002600083815260200190815260200160002060006101000a81548173ffffffffffffffffffffffffffffffffffffffff021916908373ffffffffffffffffffffffffffffffffffffffff160217905550808273ffffffffffffffffffffffffffffffffffffffff16600073ffffffffffffffffffffffffffffffffffffffff167fddf252ad1be2c89b69c2b068fc378daa952ba7f163c4a11628f55a4df523b3ef60405160405180910390a46114e66000838360016118fa565b5050565b600061150b8473ffffffffffffffffffffffffffffffffffffffff16611900565b15611674578373ffffffffffffffffffffffffffffffffffffffff1663150b7a02611534610d61565b8786866040518563ffffffff1660e01b81526004016115569493929190611fd4565b602060405180830381600087803b15801561157057600080fd5b505af19250505080156115a157506040513d601f19601f8201168201806040525081019061159e9190611cd0565b60015b611624573d80600081146115d1576040519150601f19603f3d011682016040523d82523d6000602084013e6115d6565b606091505b5060008151141561161c576040517f08c379a00000000000000000000000000000000000000000000000000000000081526004016116139061205d565b60405180910390fd5b805181602001fd5b63150b7a0260e01b7bffffffffffffffffffffffffffffffffffffffffffffffffffffffff1916817bffffffffffffffffffffffffffffffffffffffffffffffffffffffff191614915050611679565b600190505b949350505050565b600080600090507a184f03e93ff9f4daa797ed6e38ed64bf6a1f01000000000000000083106116df577a184f03e93ff9f4daa797ed6e38ed64bf6a1f01000000000000000083816116d5576116d461236d565b5b0492506040810190505b6d04ee2d6d415b85acef8100000000831061171c576d04ee2d6d415b85acef810000000083816117125761171161236d565b5b0492506020810190505b662386f26fc10000831061174b57662386f26fc1000083816117415761174061236d565b5b0492506010810190505b6305f5e1008310611774576305f5e100838161176a5761176961236d565b5b0492506008810190505b612710831061179957612710838161178f5761178e61236d565b5b0492506004810190505b606483106117bc57606483816117b2576117b161236d565b5b0492506002810190505b600a83106117cb576001810190505b80915050919050565b60018111156118f457600073ffffffffffffffffffffffffffffffffffffffff168473ffffffffffffffffffffffffffffffffffffffff16146118685780600360008673ffffffffffffffffffffffffffffffffffffffff1673ffffffffffffffffffffffffffffffffffffffff16815260200190815260200160002060008282546118609190612231565b925050819055505b600073ffffffffffffffffffffffffffffffffffffffff168373ffffffffffffffffffffffffffffffffffffffff16146118f35780600360008573ffffffffffffffffffffffffffffffffffffffff1673ffffffffffffffffffffffffffffffffffffffff16815260200190815260200160002060008282546118eb91906121db565b925050819055505b5b50505050565b50505050565b6000808273ffffffffffffffffffffffffffffffffffffffff163b119050919050565b82805461192f9061230c565b90600052602060002090601f0160209004810192826119515760008555611998565b82601f1061196a57805160ff1916838001178555611998565b82800160010185558215611998579182015b8281111561199757825182559160200191906001019061197c565b5b5090506119a591906119a9565b5090565b5b808211156119c25760008160009055506001016119aa565b5090565b6000813590506119d581612653565b92915050565b6000813590506119ea8161266a565b92915050565b6000813590506119ff81612681565b92915050565b600081519050611a1481612681565b92915050565b60008083601f840112611a3057611a2f6123ff565b5b8235905067ffffffffffffffff811115611a4d57611a4c6123fa565b5b602083019150836001820283011115611a6957611a68612404565b5b9250929050565b60008083601f840112611a8657611a856123ff565b5b8235905067ffffffffffffffff811115611aa357611aa26123fa565b5b602083019150836001820283011115611abf57611abe612404565b5b9250929050565b600081359050611ad581612698565b92915050565b600060208284031215611af157611af061240e565b5b6000611aff848285016119c6565b91505092915050565b60008060408385031215611b1f57611b1e61240e565b5b6000611b2d858286016119c6565b9250506020611b3e858286016119c6565b9150509250929050565b600080600060608486031215611b6157611b6061240e565b5b6000611b6f868287016119c6565b9350506020611b80868287016119c6565b9250506040611b9186828701611ac6565b9150509250925092565b600080600080600060808688031215611bb757611bb661240e565b5b6000611bc5888289016119c6565b9550506020611bd6888289016119c6565b9450506040611be788828901611ac6565b935050606086013567ffffffffffffffff811115611c0857611c07612409565b5b611c1488828901611a1a565b92509250509295509295909350565b60008060408385031215611c3a57611c3961240e565b5b6000611c48858286016119c6565b9250506020611c59858286016119db565b9150509250929050565b60008060408385031215611c7a57611c7961240e565b5b6000611c88858286016119c6565b9250506020611c9985828601611ac6565b9150509250929050565b600060208284031215611cb957611cb861240e565b5b6000611cc7848285016119f0565b91505092915050565b600060208284031215611ce657611ce561240e565b5b6000611cf484828501611a05565b91505092915050565b600080600060408486031215611d1657611d1561240e565b5b600084013567ffffffffffffffff811115611d3457611d33612409565b5b611d4086828701611a70565b93509350506020611d5386828701611ac6565b9150509250925092565b600060208284031215611d7357611d7261240e565b5b6000611d8184828501611ac6565b91505092915050565b611d9381612265565b82525050565b611da281612277565b82525050565b6000611db382612198565b611dbd81856121ae565b9350611dcd8185602086016122d9565b611dd681612413565b840191505092915050565b6000611dec826121a3565b611df681856121bf565b9350611e068185602086016122d9565b611e0f81612413565b840191505092915050565b6000611e25826121a3565b611e2f81856121d0565b9350611e3f8185602086016122d9565b80840191505092915050565b6000611e586032836121bf565b9150611e6382612424565b604082019050919050565b6000611e7b601c836121bf565b9150611e8682612473565b602082019050919050565b6000611e9e6019836121bf565b9150611ea98261249c565b602082019050919050565b6000611ec16029836121bf565b9150611ecc826124c5565b604082019050919050565b6000611ee4602e836121bf565b9150611eef82612514565b604082019050919050565b6000611f076020836121bf565b9150611f1282612563565b602082019050919050565b6000611f2a6018836121bf565b9150611f358261258c565b602082019050919050565b6000611f4d6021836121bf565b9150611f58826125b5565b604082019050919050565b6000611f70603d836121bf565b9150611f7b82612604565b604082019050919050565b611f8f816122cf565b82525050565b6000611fa18285611e1a565b9150611fad8284611e1a565b91508190509392505050565b6000602082019050611fce6000830184611d8a565b92915050565b6000608082019050611fe96000830187611d8a565b611ff66020830186611d8a565b6120036040830185611f86565b81810360608301526120158184611da8565b905095945050505050565b60006020820190506120356000830184611d99565b92915050565b600060208201905081810360008301526120558184611de1565b905092915050565b6000602082019050818103600083015261207681611e4b565b9050919050565b6000602082019050818103600083015261209681611e6e565b9050919050565b600060208201905081810360008301526120b681611e91565b9050919050565b600060208201905081810360008301526120d681611eb4565b9050919050565b600060208201905081810360008301526120f681611ed7565b9050919050565b6000602082019050818103600083015261211681611efa565b9050919050565b6000602082019050818103600083015261213681611f1d565b9050919050565b6000602082019050818103600083015261215681611f40565b9050919050565b6000602082019050818103600083015261217681611f63565b9050919050565b60006020820190506121926000830184611f86565b92915050565b600081519050919050565b600081519050919050565b600082825260208201905092915050565b600082825260208201905092915050565b600081905092915050565b60006121e6826122cf565b91506121f1836122cf565b9250827fffffffffffffffffffffffffffffffffffffffffffffffffffffffffffffffff038211156122265761222561233e565b5b828201905092915050565b600061223c826122cf565b9150612247836122cf565b92508282101561225a5761225961233e565b5b828203905092915050565b6000612270826122af565b9050919050565b60008115159050919050565b60007fffffffff0000000000000000000000000000000000000000000000000000000082169050919050565b600073ffffffffffffffffffffffffffffffffffffffff82169050919050565b6000819050919050565b60005b838110156122f75780820151818401526020810190506122dc565b83811115612306576000848401525b50505050565b6000600282049050600182168061232457607f821691505b602082108114156123385761233761239c565b5b50919050565b7f4e487b7100000000000000000000000000000000000000000000000000000000600052601160045260246000fd5b7f4e487b7100000000000000000000000000000000000000000000000000000000600052601260045260246000fd5b7f4e487b7100000000000000000000000000000000000000000000000000000000600052602260045260246000fd5b7f4e487b7100000000000000000000000000000000000000000000000000000000600052604160045260246000fd5b600080fd5b600080fd5b600080fd5b600080fd5b600080fd5b6000601f19601f8301169050919050565b7f4552433732313a207472616e7366657220746f206e6f6e20455243373231526560008201527f63656976657220696d706c656d656e7465720000000000000000000000000000602082015250565b7f4552433732313a20746f6b656e20616c7265616479206d696e74656400000000600082015250565b7f4552433732313a20617070726f766520746f2063616c6c657200000000000000600082015250565b7f4552433732313a2061646472657373207a65726f206973206e6f74206120766160008201527f6c6964206f776e65720000000000000000000000000000000000000000000000602082015250565b7f45524337323155524953746f726167653a2055524920736574206f66206e6f6e60008201527f6578697374656e7420746f6b656e000000000000000000000000000000000000602082015250565b7f4552433732313a206d696e7420746f20746865207a65726f2061646472657373600082015250565b7f4552433732313a20696e76616c696420746f6b656e2049440000000000000000600082015250565b7f4552433732313a20617070726f76616c20746f2063757272656e74206f776e6560008201527f7200000000000000000000000000000000000000000000000000000000000000602082015250565b7f4552433732313a20617070726f76652063616c6c6572206973206e6f7420746f60008201527f6b656e206f776e6572206f7220617070726f76656420666f7220616c6c000000602082015250565b61265c81612265565b811461266757600080fd5b50565b61267381612277565b811461267e57600080fd5b50565b61268a81612283565b811461269557600080fd5b50565b6126a1816122cf565b81146126ac57600080fd5b5056fea264697066735822122069195b215daa9d82851514f081bb83281202f344dc989c4c9b0d859f5103f5a964736f6c63430008070033",
  "devdoc": {
    "kind": "dev",
    "methods": {
      "approve(address,uint256)": {
        "details": "See {IERC721-approve}."
      },
      "balanceOf(address)": {
        "details": "See {IERC721-balanceOf}."
      },
      "getApproved(uint256)": {
        "details": "See {IERC721-getApproved}."
      },
      "isApprovedForAll(address,address)": {
        "details": "See {IERC721-isApprovedForAll}."
      },
      "name()": {
        "details": "See {IERC721Metadata-name}."
      },
      "ownerOf(uint256)": {
        "details": "See {IERC721-ownerOf}."
      },
      "safeTransferFrom(address,address,uint256)": {
        "details": "See {IERC721-safeTransferFrom}."
      },
      "safeTransferFrom(address,address,uint256,bytes)": {
        "details": "See {IERC721-safeTransferFrom}."
      },
      "setApprovalForAll(address,bool)": {
        "details": "See {IERC721-setApprovalForAll}."
      },
      "supportsInterface(bytes4)": {
        "details": "See {IERC165-supportsInterface}."
      },
      "symbol()": {
        "details": "See {IERC721Metadata-symbol}."
      },
      "tokenURI(uint256)": {
        "details": "See {IERC721Metadata-tokenURI}."
      },
      "transferFrom(address,address,uint256)": {
        "details": "See {IERC721-transferFrom}."
      }
    },
    "version": 1
  },
  "userdoc": {
    "kind": "user",
    "methods": {},
    "version": 1
  },
  "storageLayout": {
    "storage": [
      {
        "astId": 25,
        "contract": "contracts/Admin.sol:Admin",
        "label": "_name",
        "offset": 0,
        "slot": "0",
        "type": "t_string_storage"
      },
      {
        "astId": 27,
        "contract": "contracts/Admin.sol:Admin",
        "label": "_symbol",
        "offset": 0,
        "slot": "1",
        "type": "t_string_storage"
      },
      {
        "astId": 31,
        "contract": "contracts/Admin.sol:Admin",
        "label": "_owners",
        "offset": 0,
        "slot": "2",
        "type": "t_mapping(t_uint256,t_address)"
      },
      {
        "astId": 35,
        "contract": "contracts/Admin.sol:Admin",
        "label": "_balances",
        "offset": 0,
        "slot": "3",
        "type": "t_mapping(t_address,t_uint256)"
      },
      {
        "astId": 39,
        "contract": "contracts/Admin.sol:Admin",
        "label": "_tokenApprovals",
        "offset": 0,
        "slot": "4",
        "type": "t_mapping(t_uint256,t_address)"
      },
      {
        "astId": 45,
        "contract": "contracts/Admin.sol:Admin",
        "label": "_operatorApprovals",
        "offset": 0,
        "slot": "5",
        "type": "t_mapping(t_address,t_mapping(t_address,t_bool))"
      },
      {
        "astId": 1091,
        "contract": "contracts/Admin.sol:Admin",
        "label": "_tokenURIs",
        "offset": 0,
        "slot": "6",
        "type": "t_mapping(t_uint256,t_string_storage)"
      },
      {
        "astId": 2673,
        "contract": "contracts/Admin.sol:Admin",
        "label": "s_addressToEntryToken",
        "offset": 0,
        "slot": "7",
        "type": "t_mapping(t_address,t_uint256)"
      },
      {
        "astId": 2678,
        "contract": "contracts/Admin.sol:Admin",
        "label": "s_entryTokenCounter",
        "offset": 0,
        "slot": "8",
        "type": "t_uint256"
      },
      {
        "astId": 2680,
        "contract": "contracts/Admin.sol:Admin",
        "label": "i_initialTokenURI",
        "offset": 0,
        "slot": "9",
        "type": "t_string_storage"
      }
    ],
    "types": {
      "t_address": {
        "encoding": "inplace",
        "label": "address",
        "numberOfBytes": "20"
      },
      "t_bool": {
        "encoding": "inplace",
        "label": "bool",
        "numberOfBytes": "1"
      },
      "t_mapping(t_address,t_bool)": {
        "encoding": "mapping",
        "key": "t_address",
        "label": "mapping(address => bool)",
        "numberOfBytes": "32",
        "value": "t_bool"
      },
      "t_mapping(t_address,t_mapping(t_address,t_bool))": {
        "encoding": "mapping",
        "key": "t_address",
        "label": "mapping(address => mapping(address => bool))",
        "numberOfBytes": "32",
        "value": "t_mapping(t_address,t_bool)"
      },
      "t_mapping(t_address,t_uint256)": {
        "encoding": "mapping",
        "key": "t_address",
        "label": "mapping(address => uint256)",
        "numberOfBytes": "32",
        "value": "t_uint256"
      },
      "t_mapping(t_uint256,t_address)": {
        "encoding": "mapping",
        "key": "t_uint256",
        "label": "mapping(uint256 => address)",
        "numberOfBytes": "32",
        "value": "t_address"
      },
      "t_mapping(t_uint256,t_string_storage)": {
        "encoding": "mapping",
        "key": "t_uint256",
        "label": "mapping(uint256 => string)",
        "numberOfBytes": "32",
        "value": "t_string_storage"
      },
      "t_string_storage": {
        "encoding": "bytes",
        "label": "string",
        "numberOfBytes": "32"
      },
      "t_uint256": {
        "encoding": "inplace",
        "label": "uint256",
        "numberOfBytes": "32"
      }
    }
  }
}