{
  "address": "0xe7f1725E7734CE288F8367e1Bb143E90bb3F0512",
  "abi": [
    {
      "anonymous": false,
      "inputs": [
        {
          "indexed": true,
          "internalType": "address",
          "name": "_ownerAddress",
          "type": "address"
        },
        {
          "indexed": true,
          "internalType": "contract Property",
          "name": "_propertyAddress",
          "type": "address"
        },
        {
          "indexed": true,
          "internalType": "string",
          "name": "_propertyData",
          "type": "string"
        }
      ],
      "name": "PropertyListed",
      "type": "event"
    },
    {
      "inputs": [
        {
          "internalType": "string",
          "name": "_propertyData",
          "type": "string"
        },
        {
          "internalType": "uint256",
          "name": "_propertyRent",
          "type": "uint256"
        },
        {
          "internalType": "uint256",
          "name": "_propertySecurity",
          "type": "uint256"
        }
      ],
      "name": "listProperty",
      "outputs": [],
      "stateMutability": "nonpayable",
      "type": "function"
    }
  ],
  "transactionHash": "0xc8156047e7ba1e72fe750ecc16fb65fa470df82d72d12e9dc599716860d8812d",
  "args": [],
  "numDeployments": 1,
  "solcInputHash": "b9a3630b4656f40cf06a40ecf77f873c",
  "bytecode": "0x608060405234801561001057600080fd5b506144eb806100206000396000f3fe60806040523480156200001157600080fd5b50600436106200002e5760003560e01c806394fbb4991462000033575b600080fd5b6200005160048036038101906200004b919062000197565b62000053565b005b60008484848433604051620000689062000113565b62000078959493929190620002b0565b604051809103906000f08015801562000095573d6000803e3d6000fd5b5090508484604051620000aa92919062000295565b60405180910390208173ffffffffffffffffffffffffffffffffffffffff163373ffffffffffffffffffffffffffffffffffffffff167f23f9b0cfc75e8cb3406afcd9f77a62d8c914bf69aaf26f449181f5a1e68015cd60405160405180910390a45050505050565b61410280620003b483390190565b60008083601f8401126200013a576200013962000374565b5b8235905067ffffffffffffffff8111156200015a57620001596200036f565b5b60208301915083600182028301111562000179576200017862000379565b5b9250929050565b600081359050620001918162000399565b92915050565b60008060008060608587031215620001b457620001b362000383565b5b600085013567ffffffffffffffff811115620001d557620001d46200037e565b5b620001e38782880162000121565b94509450506020620001f88782880162000180565b92505060406200020b8782880162000180565b91505092959194509250565b620002228162000322565b82525050565b600062000236838562000306565b93506200024583858462000360565b620002508362000388565b840190509392505050565b600062000269838562000317565b93506200027883858462000360565b82840190509392505050565b6200028f8162000356565b82525050565b6000620002a48284866200025b565b91508190509392505050565b60006080820190508181036000830152620002cd81878962000228565b9050620002de602083018662000284565b620002ed604083018562000284565b620002fc606083018462000217565b9695505050505050565b600082825260208201905092915050565b600081905092915050565b60006200032f8262000336565b9050919050565b600073ffffffffffffffffffffffffffffffffffffffff82169050919050565b6000819050919050565b82818337600083830152505050565b600080fd5b600080fd5b600080fd5b600080fd5b600080fd5b6000601f19601f8301169050919050565b620003a48162000356565b8114620003b057600080fd5b5056fe60a06040526000600b553480156200001657600080fd5b50604051620041023803806200410283398181016040528101906200003c91906200034c565b6040518060400160405280600981526020017f4465616c546f6b656e00000000000000000000000000000000000000000000008152506040518060400160405280600381526020017f44544e00000000000000000000000000000000000000000000000000000000008152508160009080519060200190620000c0929190620001f0565b508060019080519060200190620000d9929190620001f0565b5050508360099080519060200190620000f4929190620001f0565b50670de0b6b3a7640000836200010b91906200043c565b600781905550670de0b6b3a7640000826200012791906200043c565b6008819055508073ffffffffffffffffffffffffffffffffffffffff1660808173ffffffffffffffffffffffffffffffffffffffff1660601b8152505080601060006101000a81548173ffffffffffffffffffffffffffffffffffffffff021916908373ffffffffffffffffffffffffffffffffffffffff16021790555080600a60006101000a81548173ffffffffffffffffffffffffffffffffffffffff021916908373ffffffffffffffffffffffffffffffffffffffff1602179055505050505062000663565b828054620001fe9062000511565b90600052602060002090601f0160209004810192826200022257600085556200026e565b82601f106200023d57805160ff19168380011785556200026e565b828001600101855582156200026e579182015b828111156200026d57825182559160200191906001019062000250565b5b5090506200027d919062000281565b5090565b5b808211156200029c57600081600090555060010162000282565b5090565b6000620002b7620002b18462000406565b620003dd565b905082815260208101848484011115620002d657620002d56200060f565b5b620002e3848285620004db565b509392505050565b600081519050620002fc816200062f565b92915050565b600082601f8301126200031a57620003196200060a565b5b81516200032c848260208601620002a0565b91505092915050565b600081519050620003468162000649565b92915050565b6000806000806080858703121562000369576200036862000619565b5b600085015167ffffffffffffffff8111156200038a576200038962000614565b5b620003988782880162000302565b9450506020620003ab8782880162000335565b9350506040620003be8782880162000335565b9250506060620003d187828801620002eb565b91505092959194509250565b6000620003e9620003fc565b9050620003f7828262000547565b919050565b6000604051905090565b600067ffffffffffffffff821115620004245762000423620005db565b5b6200042f826200061e565b9050602081019050919050565b60006200044982620004d1565b91506200045683620004d1565b9250817fffffffffffffffffffffffffffffffffffffffffffffffffffffffffffffffff04831182151516156200049257620004916200057d565b5b828202905092915050565b6000620004aa82620004b1565b9050919050565b600073ffffffffffffffffffffffffffffffffffffffff82169050919050565b6000819050919050565b60005b83811015620004fb578082015181840152602081019050620004de565b838111156200050b576000848401525b50505050565b600060028204905060018216806200052a57607f821691505b60208210811415620005415762000540620005ac565b5b50919050565b62000552826200061e565b810181811067ffffffffffffffff82111715620005745762000573620005db565b5b80604052505050565b7f4e487b7100000000000000000000000000000000000000000000000000000000600052601160045260246000fd5b7f4e487b7100000000000000000000000000000000000000000000000000000000600052602260045260246000fd5b7f4e487b7100000000000000000000000000000000000000000000000000000000600052604160045260246000fd5b600080fd5b600080fd5b600080fd5b600080fd5b6000601f19601f8301169050919050565b6200063a816200049d565b81146200064657600080fd5b50565b6200065481620004d1565b81146200066057600080fd5b50565b60805160601c613a4f620006b360003960008181610d4c01528181610e7301528181611223015281816113f80152818161175601528181611c2b01528181611dd90152611e9d0152613a4f6000f3fe6080604052600436106102255760003560e01c806395d89b4111610123578063c87b56dd116100ab578063e23c969b1161006f578063e23c969b146107b5578063e985e9c5146107de578063eb9220ab1461081b578063f502236d14610844578063f5cf52741461086f57610225565b8063c87b56dd146106ce578063caafffac1461070b578063cf77c99a14610736578063de30c3b81461075f578063e07195641461078a57610225565b8063a22cb465116100f2578063a22cb46514610630578063a709c4fe14610659578063b135648814610663578063b88d4fde1461068e578063c7dc8a34146106b757610225565b806395d89b41146105885780639905388f146105b3578063990581b6146105ca578063a06c794a1461060757610225565b80633e6ca6aa116101b157806370a082311161017557806370a082311461049e5780637e0bd377146104db5780637e4dcaa3146105065780638b5d0ec614610543578063907e19031461055f57610225565b80633e6ca6aa146103cb57806342842e0e146103f657806351cd4c2b1461041f5780635cd1055c1461044a5780636352211e1461046157610225565b806312065fe0116101f857806312065fe0146102f8578063174856c5146103235780631d7450ac1461034c57806323b872dd146103775780632541897f146103a057610225565b806301ffc9a71461022a57806306fdde0314610267578063081812fc14610292578063095ea7b3146102cf575b600080fd5b34801561023657600080fd5b50610251600480360381019061024c9190612e1c565b610898565b60405161025e91906132e4565b60405180910390f35b34801561027357600080fd5b5061027c61097a565b60405161028991906132ff565b60405180910390f35b34801561029e57600080fd5b506102b960048036038101906102b49190612fab565b610a0c565b6040516102c6919061327d565b60405180910390f35b3480156102db57600080fd5b506102f660048036038101906102f19190612ddc565b610a52565b005b34801561030457600080fd5b5061030d610b6a565b60405161031a9190613441565b60405180910390f35b34801561032f57600080fd5b5061034a60048036038101906103459190612c54565b610b72565b005b34801561035857600080fd5b50610361610bbe565b60405161036e91906132ff565b60405180910390f35b34801561038357600080fd5b5061039e60048036038101906103999190612cc1565b610c50565b005b3480156103ac57600080fd5b506103b5610c82565b6040516103c29190613441565b60405180910390f35b3480156103d757600080fd5b506103e0610c8c565b6040516103ed919061327d565b60405180910390f35b34801561040257600080fd5b5061041d60048036038101906104189190612cc1565b610cb6565b005b34801561042b57600080fd5b50610434610ce8565b6040516104419190613441565b60405180910390f35b34801561045657600080fd5b5061045f610cf2565b005b34801561046d57600080fd5b5061048860048036038101906104839190612fab565b610fc1565b604051610495919061327d565b60405180910390f35b3480156104aa57600080fd5b506104c560048036038101906104c09190612c54565b611048565b6040516104d29190613441565b60405180910390f35b3480156104e757600080fd5b506104f0611100565b6040516104fd9190613441565b60405180910390f35b34801561051257600080fd5b5061052d60048036038101906105289190612c54565b61110d565b60405161053a9190613441565b60405180910390f35b61055d60048036038101906105589190612f23565b611156565b005b34801561056b57600080fd5b5061058660048036038101906105819190612e76565b6113ee565b005b34801561059457600080fd5b5061059d611519565b6040516105aa91906132ff565b60405180910390f35b3480156105bf57600080fd5b506105c86115ab565b005b3480156105d657600080fd5b506105f160048036038101906105ec9190612fab565b6116a4565b6040516105fe91906132ff565b60405180910390f35b34801561061357600080fd5b5061062e60048036038101906106299190612ec3565b611754565b005b34801561063c57600080fd5b5061065760048036038101906106529190612d9c565b61182c565b005b610661611842565b005b34801561066f57600080fd5b5061067861192d565b6040516106859190613441565b60405180910390f35b34801561069a57600080fd5b506106b560048036038101906106b09190612d14565b611937565b005b3480156106c357600080fd5b506106cc611969565b005b3480156106da57600080fd5b506106f560048036038101906106f09190612fab565b6119b6565b60405161070291906132ff565b60405180910390f35b34801561071757600080fd5b50610720611ac9565b60405161072d919061327d565b60405180910390f35b34801561074257600080fd5b5061075d60048036038101906107589190612e76565b611af3565b005b34801561076b57600080fd5b50610774611b11565b6040516107819190613441565b60405180910390f35b34801561079657600080fd5b5061079f611b1b565b6040516107ac9190613441565b60405180910390f35b3480156107c157600080fd5b506107dc60048036038101906107d79190612e76565b611b25565b005b3480156107ea57600080fd5b5061080560048036038101906108009190612c81565b611b81565b60405161081291906132e4565b60405180910390f35b34801561082757600080fd5b50610842600480360381019061083d9190612fab565b611c15565b005b34801561085057600080fd5b50610859611c27565b604051610866919061327d565b60405180910390f35b34801561087b57600080fd5b5061089660048036038101906108919190612fab565b611c4f565b005b60007f80ac58cd000000000000000000000000000000000000000000000000000000007bffffffffffffffffffffffffffffffffffffffffffffffffffffffff1916827bffffffffffffffffffffffffffffffffffffffffffffffffffffffff1916148061096357507f5b5e139f000000000000000000000000000000000000000000000000000000007bffffffffffffffffffffffffffffffffffffffffffffffffffffffff1916827bffffffffffffffffffffffffffffffffffffffffffffffffffffffff1916145b80610973575061097282611c61565b5b9050919050565b60606000805461098990613644565b80601f01602080910402602001604051908101604052809291908181526020018280546109b590613644565b8015610a025780601f106109d757610100808354040283529160200191610a02565b820191906000526020600020905b8154815290600101906020018083116109e557829003601f168201915b5050505050905090565b6000610a1782611ccb565b6004600083815260200190815260200160002060009054906101000a900473ffffffffffffffffffffffffffffffffffffffff169050919050565b6000610a5d82610fc1565b90508073ffffffffffffffffffffffffffffffffffffffff168373ffffffffffffffffffffffffffffffffffffffff161415610ace576040517f08c379a0000000000000000000000000000000000000000000000000000000008152600401610ac590613401565b60405180910390fd5b8073ffffffffffffffffffffffffffffffffffffffff16610aed611d16565b73ffffffffffffffffffffffffffffffffffffffff161480610b1c5750610b1b81610b16611d16565b611b81565b5b610b5b576040517f08c379a0000000000000000000000000000000000000000000000000000000008152600401610b5290613421565b60405180910390fd5b610b658383611d1e565b505050565b600047905090565b610b7a611dd7565b80600a60006101000a81548173ffffffffffffffffffffffffffffffffffffffff021916908373ffffffffffffffffffffffffffffffffffffffff16021790555050565b606060098054610bcd90613644565b80601f0160208091040260200160405190810160405280929190818152602001828054610bf990613644565b8015610c465780601f10610c1b57610100808354040283529160200191610c46565b820191906000526020600020905b815481529060010190602001808311610c2957829003601f168201915b5050505050905090565b6040517f5585a59600000000000000000000000000000000000000000000000000000000815260040160405180910390fd5b6000600854905090565b6000601060009054906101000a900473ffffffffffffffffffffffffffffffffffffffff16905090565b6040517f5585a59600000000000000000000000000000000000000000000000000000000815260040160405180910390fd5b6000600e54905090565b601060009054906101000a900473ffffffffffffffffffffffffffffffffffffffff1673ffffffffffffffffffffffffffffffffffffffff163373ffffffffffffffffffffffffffffffffffffffff16141580610d9b57507f000000000000000000000000000000000000000000000000000000000000000073ffffffffffffffffffffffffffffffffffffffff163373ffffffffffffffffffffffffffffffffffffffff1614155b15610dd2576040517f425a301a00000000000000000000000000000000000000000000000000000000815260040160405180910390fd5b600d544211610e0d576040517f384317cd00000000000000000000000000000000000000000000000000000000815260040160405180910390fd5b6000600e541115610e4a576040517fd648876200000000000000000000000000000000000000000000000000000000815260040160405180910390fd5b6000601060009054906101000a900473ffffffffffffffffffffffffffffffffffffffff1690507f0000000000000000000000000000000000000000000000000000000000000000601060006101000a81548173ffffffffffffffffffffffffffffffffffffffff021916908373ffffffffffffffffffffffffffffffffffffffff16021790555060008173ffffffffffffffffffffffffffffffffffffffff16600854604051610efa90613268565b60006040518083038185875af1925050503d8060008114610f37576040519150601f19603f3d011682016040523d82523d6000602084013e610f3c565b606091505b5050905080610f77576040517f63c5bef500000000000000000000000000000000000000000000000000000000815260040160405180910390fd5b600b548273ffffffffffffffffffffffffffffffffffffffff167f98cb3c3a061b0867cd83a9d7ea59a62f762eea504d3c2797053427e010cae7e360405160405180910390a35050565b600080610fcd83611e5e565b9050600073ffffffffffffffffffffffffffffffffffffffff168173ffffffffffffffffffffffffffffffffffffffff16141561103f576040517f08c379a0000000000000000000000000000000000000000000000000000000008152600401611036906133e1565b60405180910390fd5b80915050919050565b60008073ffffffffffffffffffffffffffffffffffffffff168273ffffffffffffffffffffffffffffffffffffffff1614156110b9576040517f08c379a00000000000000000000000000000000000000000000000000000000081526004016110b090613381565b60405180910390fd5b600360008373ffffffffffffffffffffffffffffffffffffffff1673ffffffffffffffffffffffffffffffffffffffff168152602001908152602001600020549050919050565b6000601180549050905090565b6000600f60008373ffffffffffffffffffffffffffffffffffffffff1673ffffffffffffffffffffffffffffffffffffffff168152602001908152602001600020549050919050565b61115e611e9b565b3373ffffffffffffffffffffffffffffffffffffffff16600a60009054906101000a900473ffffffffffffffffffffffffffffffffffffffff1673ffffffffffffffffffffffffffffffffffffffff16146111e5576040517fccb4950b00000000000000000000000000000000000000000000000000000000815260040160405180910390fd5b600854341015611221576040517f13e429bd00000000000000000000000000000000000000000000000000000000815260040160405180910390fd5b7f0000000000000000000000000000000000000000000000000000000000000000600a60006101000a81548173ffffffffffffffffffffffffffffffffffffffff021916908373ffffffffffffffffffffffffffffffffffffffff1602179055506001600b600082825461129591906134aa565b92505081905550600b54600f60003373ffffffffffffffffffffffffffffffffffffffff1673ffffffffffffffffffffffffffffffffffffffff1681526020019081526020016000208190555033601060006101000a81548173ffffffffffffffffffffffffffffffffffffffff021916908373ffffffffffffffffffffffffffffffffffffffff16021790555082600c8190555081600d819055508060075461133f9190613500565b600e8190555061135133600b54611f44565b6113a1600b5486868080601f016020809104026020016040519081016040528093929190818152602001838380828437600081840152601f19601f82011690508083019250505050505050611f62565b600b543373ffffffffffffffffffffffffffffffffffffffff167fa421067b02d4355421ce2db1388160a969b086bb671184c7cf32e41c5a5a60dd60405160405180910390a35050505050565b6113f6611fd6565b7f000000000000000000000000000000000000000000000000000000000000000073ffffffffffffffffffffffffffffffffffffffff163373ffffffffffffffffffffffffffffffffffffffff16141561147c576040517f0f6cbd4a00000000000000000000000000000000000000000000000000000000815260040160405180910390fd5b60118282909180600181540180825580915050600190039060005260206000200160009091929091929091929091925091906114b9929190612a16565b5081816040516114ca92919061322b565b60405180910390203373ffffffffffffffffffffffffffffffffffffffff167f735a8465cb95c1119a0a9c5bfe794f848896e77bf9ba97f9115c49a08e5b54eb60405160405180910390a35050565b60606001805461152890613644565b80601f016020809104026020016040519081016040528092919081815260200182805461155490613644565b80156115a15780601f10611576576101008083540402835291602001916115a1565b820191906000526020600020905b81548152906001019060200180831161158457829003601f168201915b5050505050905090565b6115b3611dd7565b6008546007546115c391906134aa565b4710156115fc576040517fff717f2400000000000000000000000000000000000000000000000000000000815260040160405180910390fd5b60003373ffffffffffffffffffffffffffffffffffffffff1660075460405161162490613268565b60006040518083038185875af1925050503d8060008114611661576040519150601f19603f3d011682016040523d82523d6000602084013e611666565b606091505b50509050806116a1576040517f63c5bef500000000000000000000000000000000000000000000000000000000815260040160405180910390fd5b50565b6060601182815481106116ba576116b9613703565b5b9060005260206000200180546116cf90613644565b80601f01602080910402602001604051908101604052809291908181526020018280546116fb90613644565b80156117485780601f1061171d57610100808354040283529160200191611748565b820191906000526020600020905b81548152906001019060200180831161172b57829003601f168201915b50505050509050919050565b7f000000000000000000000000000000000000000000000000000000000000000073ffffffffffffffffffffffffffffffffffffffff163373ffffffffffffffffffffffffffffffffffffffff16146117d9576040517f425a301a00000000000000000000000000000000000000000000000000000000815260040160405180910390fd5b6118278184848080601f016020809104026020016040519081016040528093929190818152602001838380828437600081840152601f19601f82011690508083019250505050505050611f62565b505050565b61183e611837611d16565b838361205f565b5050565b61184a611fd6565b6007543414611885576040517f0efd464700000000000000000000000000000000000000000000000000000000815260040160405180910390fd5b6000600e5414156118c2576040517ff33e9dd700000000000000000000000000000000000000000000000000000000815260040160405180910390fd5b600754600e60008282546118d6919061355a565b9250508190555062278d00600c60008282546118f291906134aa565b92505081905550600c54600e547fa0d112ed080c1b1a94b838ad981a23746be2a4670fd4bf157224e72cdd5dfdde60405160405180910390a3565b6000600d54905090565b6040517f5585a59600000000000000000000000000000000000000000000000000000000815260040160405180910390fd5b611971611e9b565b3373ffffffffffffffffffffffffffffffffffffffff167f72f6ec01d98adf6601285d8b6b5d481ad0b1aa6dd6bbadfff6fbb8232f80861560405160405180910390a2565b60606119c182611ccb565b60006006600084815260200190815260200160002080546119e190613644565b80601f0160208091040260200160405190810160405280929190818152602001828054611a0d90613644565b8015611a5a5780601f10611a2f57610100808354040283529160200191611a5a565b820191906000526020600020905b815481529060010190602001808311611a3d57829003601f168201915b505050505090506000611a6b6121cc565b9050600081511415611a81578192505050611ac4565b600082511115611ab6578082604051602001611a9e929190613244565b60405160208183030381529060405292505050611ac4565b611abf846121e3565b925050505b919050565b6000600a60009054906101000a900473ffffffffffffffffffffffffffffffffffffffff16905090565b611afb611dd7565b818160099190611b0c929190612a16565b505050565b6000600c54905090565b6000600754905090565b611b2d611dd7565b611b7d600b5483838080601f016020809104026020016040519081016040528093929190818152602001838380828437600081840152601f19601f82011690508083019250505050505050611f62565b5050565b6000600560008473ffffffffffffffffffffffffffffffffffffffff1673ffffffffffffffffffffffffffffffffffffffff16815260200190815260200160002060008373ffffffffffffffffffffffffffffffffffffffff1673ffffffffffffffffffffffffffffffffffffffff16815260200190815260200160002060009054906101000a900460ff16905092915050565b611c1d611dd7565b8060078190555050565b60007f0000000000000000000000000000000000000000000000000000000000000000905090565b611c57611dd7565b8060088190555050565b60007f01ffc9a7000000000000000000000000000000000000000000000000000000007bffffffffffffffffffffffffffffffffffffffffffffffffffffffff1916827bffffffffffffffffffffffffffffffffffffffffffffffffffffffff1916149050919050565b611cd48161224b565b611d13576040517f08c379a0000000000000000000000000000000000000000000000000000000008152600401611d0a906133e1565b60405180910390fd5b50565b600033905090565b816004600083815260200190815260200160002060006101000a81548173ffffffffffffffffffffffffffffffffffffffff021916908373ffffffffffffffffffffffffffffffffffffffff160217905550808273ffffffffffffffffffffffffffffffffffffffff16611d9183610fc1565b73ffffffffffffffffffffffffffffffffffffffff167f8c5be1e5ebec7d5bd14f71427d1e84f3dd0314c0f7b2291e5b200ac8c7c3b92560405160405180910390a45050565b7f000000000000000000000000000000000000000000000000000000000000000073ffffffffffffffffffffffffffffffffffffffff163373ffffffffffffffffffffffffffffffffffffffff1614611e5c576040517f8bff009d00000000000000000000000000000000000000000000000000000000815260040160405180910390fd5b565b60006002600083815260200190815260200160002060009054906101000a900473ffffffffffffffffffffffffffffffffffffffff169050919050565b7f000000000000000000000000000000000000000000000000000000000000000073ffffffffffffffffffffffffffffffffffffffff16601060009054906101000a900473ffffffffffffffffffffffffffffffffffffffff1673ffffffffffffffffffffffffffffffffffffffff1614611f42576040517fec34c9ab00000000000000000000000000000000000000000000000000000000815260040160405180910390fd5b565b611f5e82826040518060200160405280600081525061228c565b5050565b611f6b8261224b565b611faa576040517f08c379a0000000000000000000000000000000000000000000000000000000008152600401611fa1906133a1565b60405180910390fd5b80600660008481526020019081526020016000209080519060200190611fd1929190612a9c565b505050565b601060009054906101000a900473ffffffffffffffffffffffffffffffffffffffff1673ffffffffffffffffffffffffffffffffffffffff163373ffffffffffffffffffffffffffffffffffffffff161461205d576040517f8060851f00000000000000000000000000000000000000000000000000000000815260040160405180910390fd5b565b8173ffffffffffffffffffffffffffffffffffffffff168373ffffffffffffffffffffffffffffffffffffffff1614156120ce576040517f08c379a00000000000000000000000000000000000000000000000000000000081526004016120c590613361565b60405180910390fd5b80600560008573ffffffffffffffffffffffffffffffffffffffff1673ffffffffffffffffffffffffffffffffffffffff16815260200190815260200160002060008473ffffffffffffffffffffffffffffffffffffffff1673ffffffffffffffffffffffffffffffffffffffff16815260200190815260200160002060006101000a81548160ff0219169083151502179055508173ffffffffffffffffffffffffffffffffffffffff168373ffffffffffffffffffffffffffffffffffffffff167f17307eab39ab6107e8899845ad3d59bd9653f200f220920489ca2b5937696c31836040516121bf91906132e4565b60405180910390a3505050565b606060405180602001604052806000815250905090565b60606121ee82611ccb565b60006121f86121cc565b905060008151116122185760405180602001604052806000815250612243565b80612222846122e7565b604051602001612233929190613244565b6040516020818303038152906040525b915050919050565b60008073ffffffffffffffffffffffffffffffffffffffff1661226d83611e5e565b73ffffffffffffffffffffffffffffffffffffffff1614159050919050565b61229683836123bf565b6122a360008484846125dd565b6122e2576040517f08c379a00000000000000000000000000000000000000000000000000000000081526004016122d990613321565b60405180910390fd5b505050565b6060600060016122f684612774565b01905060008167ffffffffffffffff81111561231557612314613732565b5b6040519080825280601f01601f1916602001820160405280156123475781602001600182028036833780820191505090505b509050600082602001820190505b6001156123b4578080600190039150507f3031323334353637383961626364656600000000000000000000000000000000600a86061a8153600a858161239e5761239d6136a5565b5b04945060008514156123af576123b4565b612355565b819350505050919050565b600073ffffffffffffffffffffffffffffffffffffffff168273ffffffffffffffffffffffffffffffffffffffff16141561242f576040517f08c379a0000000000000000000000000000000000000000000000000000000008152600401612426906133c1565b60405180910390fd5b6124388161224b565b15612478576040517f08c379a000000000000000000000000000000000000000000000000000000000815260040161246f90613341565b60405180910390fd5b6124866000838360016128c7565b61248f8161224b565b156124cf576040517f08c379a00000000000000000000000000000000000000000000000000000000081526004016124c690613341565b60405180910390fd5b6001600360008473ffffffffffffffffffffffffffffffffffffffff1673ffffffffffffffffffffffffffffffffffffffff16815260200190815260200160002060008282540192505081905550816002600083815260200190815260200160002060006101000a81548173ffffffffffffffffffffffffffffffffffffffff021916908373ffffffffffffffffffffffffffffffffffffffff160217905550808273ffffffffffffffffffffffffffffffffffffffff16600073ffffffffffffffffffffffffffffffffffffffff167fddf252ad1be2c89b69c2b068fc378daa952ba7f163c4a11628f55a4df523b3ef60405160405180910390a46125d96000838360016129ed565b5050565b60006125fe8473ffffffffffffffffffffffffffffffffffffffff166129f3565b15612767578373ffffffffffffffffffffffffffffffffffffffff1663150b7a02612627611d16565b8786866040518563ffffffff1660e01b81526004016126499493929190613298565b602060405180830381600087803b15801561266357600080fd5b505af192505050801561269457506040513d601f19601f820116820180604052508101906126919190612e49565b60015b612717573d80600081146126c4576040519150601f19603f3d011682016040523d82523d6000602084013e6126c9565b606091505b5060008151141561270f576040517f08c379a000000000000000000000000000000000000000000000000000000000815260040161270690613321565b60405180910390fd5b805181602001fd5b63150b7a0260e01b7bffffffffffffffffffffffffffffffffffffffffffffffffffffffff1916817bffffffffffffffffffffffffffffffffffffffffffffffffffffffff19161491505061276c565b600190505b949350505050565b600080600090507a184f03e93ff9f4daa797ed6e38ed64bf6a1f01000000000000000083106127d2577a184f03e93ff9f4daa797ed6e38ed64bf6a1f01000000000000000083816127c8576127c76136a5565b5b0492506040810190505b6d04ee2d6d415b85acef8100000000831061280f576d04ee2d6d415b85acef81000000008381612805576128046136a5565b5b0492506020810190505b662386f26fc10000831061283e57662386f26fc100008381612834576128336136a5565b5b0492506010810190505b6305f5e1008310612867576305f5e100838161285d5761285c6136a5565b5b0492506008810190505b612710831061288c576127108381612882576128816136a5565b5b0492506004810190505b606483106128af57606483816128a5576128a46136a5565b5b0492506002810190505b600a83106128be576001810190505b80915050919050565b60018111156129e757600073ffffffffffffffffffffffffffffffffffffffff168473ffffffffffffffffffffffffffffffffffffffff161461295b5780600360008673ffffffffffffffffffffffffffffffffffffffff1673ffffffffffffffffffffffffffffffffffffffff1681526020019081526020016000206000828254612953919061355a565b925050819055505b600073ffffffffffffffffffffffffffffffffffffffff168373ffffffffffffffffffffffffffffffffffffffff16146129e65780600360008573ffffffffffffffffffffffffffffffffffffffff1673ffffffffffffffffffffffffffffffffffffffff16815260200190815260200160002060008282546129de91906134aa565b925050819055505b5b50505050565b50505050565b6000808273ffffffffffffffffffffffffffffffffffffffff163b119050919050565b828054612a2290613644565b90600052602060002090601f016020900481019282612a445760008555612a8b565b82601f10612a5d57803560ff1916838001178555612a8b565b82800160010185558215612a8b579182015b82811115612a8a578235825591602001919060010190612a6f565b5b509050612a989190612b22565b5090565b828054612aa890613644565b90600052602060002090601f016020900481019282612aca5760008555612b11565b82601f10612ae357805160ff1916838001178555612b11565b82800160010185558215612b11579182015b82811115612b10578251825591602001919060010190612af5565b5b509050612b1e9190612b22565b5090565b5b80821115612b3b576000816000905550600101612b23565b5090565b600081359050612b4e816139bd565b92915050565b600081359050612b63816139d4565b92915050565b600081359050612b78816139eb565b92915050565b600081519050612b8d816139eb565b92915050565b60008083601f840112612ba957612ba8613766565b5b8235905067ffffffffffffffff811115612bc657612bc5613761565b5b602083019150836001820283011115612be257612be161376b565b5b9250929050565b60008083601f840112612bff57612bfe613766565b5b8235905067ffffffffffffffff811115612c1c57612c1b613761565b5b602083019150836001820283011115612c3857612c3761376b565b5b9250929050565b600081359050612c4e81613a02565b92915050565b600060208284031215612c6a57612c69613775565b5b6000612c7884828501612b3f565b91505092915050565b60008060408385031215612c9857612c97613775565b5b6000612ca685828601612b3f565b9250506020612cb785828601612b3f565b9150509250929050565b600080600060608486031215612cda57612cd9613775565b5b6000612ce886828701612b3f565b9350506020612cf986828701612b3f565b9250506040612d0a86828701612c3f565b9150509250925092565b600080600080600060808688031215612d3057612d2f613775565b5b6000612d3e88828901612b3f565b9550506020612d4f88828901612b3f565b9450506040612d6088828901612c3f565b935050606086013567ffffffffffffffff811115612d8157612d80613770565b5b612d8d88828901612b93565b92509250509295509295909350565b60008060408385031215612db357612db2613775565b5b6000612dc185828601612b3f565b9250506020612dd285828601612b54565b9150509250929050565b60008060408385031215612df357612df2613775565b5b6000612e0185828601612b3f565b9250506020612e1285828601612c3f565b9150509250929050565b600060208284031215612e3257612e31613775565b5b6000612e4084828501612b69565b91505092915050565b600060208284031215612e5f57612e5e613775565b5b6000612e6d84828501612b7e565b91505092915050565b60008060208385031215612e8d57612e8c613775565b5b600083013567ffffffffffffffff811115612eab57612eaa613770565b5b612eb785828601612be9565b92509250509250929050565b600080600060408486031215612edc57612edb613775565b5b600084013567ffffffffffffffff811115612efa57612ef9613770565b5b612f0686828701612be9565b93509350506020612f1986828701612c3f565b9150509250925092565b600080600080600060808688031215612f3f57612f3e613775565b5b600086013567ffffffffffffffff811115612f5d57612f5c613770565b5b612f6988828901612be9565b95509550506020612f7c88828901612c3f565b9350506040612f8d88828901612c3f565b9250506060612f9e88828901612c3f565b9150509295509295909350565b600060208284031215612fc157612fc0613775565b5b6000612fcf84828501612c3f565b91505092915050565b612fe18161358e565b82525050565b612ff0816135a0565b82525050565b60006130018261345c565b61300b8185613472565b935061301b818560208601613611565b6130248161377a565b840191505092915050565b600061303b838561349f565b9350613048838584613602565b82840190509392505050565b600061305f82613467565b613069818561348e565b9350613079818560208601613611565b6130828161377a565b840191505092915050565b600061309882613467565b6130a2818561349f565b93506130b2818560208601613611565b80840191505092915050565b60006130cb60328361348e565b91506130d68261378b565b604082019050919050565b60006130ee601c8361348e565b91506130f9826137da565b602082019050919050565b600061311160198361348e565b915061311c82613803565b602082019050919050565b600061313460298361348e565b915061313f8261382c565b604082019050919050565b6000613157602e8361348e565b91506131628261387b565b604082019050919050565b600061317a60208361348e565b9150613185826138ca565b602082019050919050565b600061319d60188361348e565b91506131a8826138f3565b602082019050919050565b60006131c060218361348e565b91506131cb8261391c565b604082019050919050565b60006131e3600083613483565b91506131ee8261396b565b600082019050919050565b6000613206603d8361348e565b91506132118261396e565b604082019050919050565b613225816135f8565b82525050565b600061323882848661302f565b91508190509392505050565b6000613250828561308d565b915061325c828461308d565b91508190509392505050565b6000613273826131d6565b9150819050919050565b60006020820190506132926000830184612fd8565b92915050565b60006080820190506132ad6000830187612fd8565b6132ba6020830186612fd8565b6132c7604083018561321c565b81810360608301526132d98184612ff6565b905095945050505050565b60006020820190506132f96000830184612fe7565b92915050565b600060208201905081810360008301526133198184613054565b905092915050565b6000602082019050818103600083015261333a816130be565b9050919050565b6000602082019050818103600083015261335a816130e1565b9050919050565b6000602082019050818103600083015261337a81613104565b9050919050565b6000602082019050818103600083015261339a81613127565b9050919050565b600060208201905081810360008301526133ba8161314a565b9050919050565b600060208201905081810360008301526133da8161316d565b9050919050565b600060208201905081810360008301526133fa81613190565b9050919050565b6000602082019050818103600083015261341a816131b3565b9050919050565b6000602082019050818103600083015261343a816131f9565b9050919050565b6000602082019050613456600083018461321c565b92915050565b600081519050919050565b600081519050919050565b600082825260208201905092915050565b600081905092915050565b600082825260208201905092915050565b600081905092915050565b60006134b5826135f8565b91506134c0836135f8565b9250827fffffffffffffffffffffffffffffffffffffffffffffffffffffffffffffffff038211156134f5576134f4613676565b5b828201905092915050565b600061350b826135f8565b9150613516836135f8565b9250817fffffffffffffffffffffffffffffffffffffffffffffffffffffffffffffffff048311821515161561354f5761354e613676565b5b828202905092915050565b6000613565826135f8565b9150613570836135f8565b92508282101561358357613582613676565b5b828203905092915050565b6000613599826135d8565b9050919050565b60008115159050919050565b60007fffffffff0000000000000000000000000000000000000000000000000000000082169050919050565b600073ffffffffffffffffffffffffffffffffffffffff82169050919050565b6000819050919050565b82818337600083830152505050565b60005b8381101561362f578082015181840152602081019050613614565b8381111561363e576000848401525b50505050565b6000600282049050600182168061365c57607f821691505b602082108114156136705761366f6136d4565b5b50919050565b7f4e487b7100000000000000000000000000000000000000000000000000000000600052601160045260246000fd5b7f4e487b7100000000000000000000000000000000000000000000000000000000600052601260045260246000fd5b7f4e487b7100000000000000000000000000000000000000000000000000000000600052602260045260246000fd5b7f4e487b7100000000000000000000000000000000000000000000000000000000600052603260045260246000fd5b7f4e487b7100000000000000000000000000000000000000000000000000000000600052604160045260246000fd5b600080fd5b600080fd5b600080fd5b600080fd5b600080fd5b6000601f19601f8301169050919050565b7f4552433732313a207472616e7366657220746f206e6f6e20455243373231526560008201527f63656976657220696d706c656d656e7465720000000000000000000000000000602082015250565b7f4552433732313a20746f6b656e20616c7265616479206d696e74656400000000600082015250565b7f4552433732313a20617070726f766520746f2063616c6c657200000000000000600082015250565b7f4552433732313a2061646472657373207a65726f206973206e6f74206120766160008201527f6c6964206f776e65720000000000000000000000000000000000000000000000602082015250565b7f45524337323155524953746f726167653a2055524920736574206f66206e6f6e60008201527f6578697374656e7420746f6b656e000000000000000000000000000000000000602082015250565b7f4552433732313a206d696e7420746f20746865207a65726f2061646472657373600082015250565b7f4552433732313a20696e76616c696420746f6b656e2049440000000000000000600082015250565b7f4552433732313a20617070726f76616c20746f2063757272656e74206f776e6560008201527f7200000000000000000000000000000000000000000000000000000000000000602082015250565b50565b7f4552433732313a20617070726f76652063616c6c6572206973206e6f7420746f60008201527f6b656e206f776e6572206f7220617070726f76656420666f7220616c6c000000602082015250565b6139c68161358e565b81146139d157600080fd5b50565b6139dd816135a0565b81146139e857600080fd5b50565b6139f4816135ac565b81146139ff57600080fd5b50565b613a0b816135f8565b8114613a1657600080fd5b5056fea2646970667358221220c6c8cb676d31009ddbd3a4cdd56a9fe33b8972d29e410db9980ebecff01218be64736f6c63430008070033a264697066735822122089b401ec2b1146d178aa226ad930b1990111d058cbbceae7b442244104267b0d64736f6c63430008070033",
  "devdoc": {
    "kind": "dev",
    "methods": {},
    "version": 1
  },
  "userdoc": {
    "kind": "user",
    "methods": {},
    "version": 1
  },
  "storageLayout": {
    "storage": [],
    "types": null
  }
}