{
  "address": "0xe7f1725E7734CE288F8367e1Bb143E90bb3F0512",
  "abi": [
    {
      "anonymous": false,
      "inputs": [
        {
          "indexed": true,
          "internalType": "address",
          "name": "_ownerAddress",
          "type": "address"
        },
        {
          "indexed": true,
          "internalType": "contract Property",
          "name": "_propertyAddress",
          "type": "address"
        },
        {
          "indexed": true,
          "internalType": "string",
          "name": "_propertyData",
          "type": "string"
        }
      ],
      "name": "PropertyListed",
      "type": "event"
    },
    {
      "inputs": [
        {
          "internalType": "string",
          "name": "_propertyData",
          "type": "string"
        },
        {
          "internalType": "uint256",
          "name": "_propertyRent",
          "type": "uint256"
        },
        {
          "internalType": "uint256",
          "name": "_propertySecurity",
          "type": "uint256"
        }
      ],
      "name": "listProperty",
      "outputs": [],
      "stateMutability": "nonpayable",
      "type": "function"
    }
  ],
  "transactionHash": "0x17141113d53450cdd06db2055a869ca54b5be675dc82c0e33addd9296c2da5f6",
  "args": [],
  "numDeployments": 1,
  "solcInputHash": "c53e9c7331aeb229659660920eef28cb",
  "bytecode": "0x608060405234801561001057600080fd5b50614339806100206000396000f3fe60806040523480156200001157600080fd5b50600436106200002e5760003560e01c806394fbb4991462000033575b600080fd5b6200005160048036038101906200004b919062000197565b62000053565b005b60008484848433604051620000689062000113565b62000078959493929190620002b0565b604051809103906000f08015801562000095573d6000803e3d6000fd5b5090508484604051620000aa92919062000295565b60405180910390208173ffffffffffffffffffffffffffffffffffffffff163373ffffffffffffffffffffffffffffffffffffffff167f23f9b0cfc75e8cb3406afcd9f77a62d8c914bf69aaf26f449181f5a1e68015cd60405160405180910390a45050505050565b613f5080620003b483390190565b60008083601f8401126200013a576200013962000374565b5b8235905067ffffffffffffffff8111156200015a57620001596200036f565b5b60208301915083600182028301111562000179576200017862000379565b5b9250929050565b600081359050620001918162000399565b92915050565b60008060008060608587031215620001b457620001b362000383565b5b600085013567ffffffffffffffff811115620001d557620001d46200037e565b5b620001e38782880162000121565b94509450506020620001f88782880162000180565b92505060406200020b8782880162000180565b91505092959194509250565b620002228162000322565b82525050565b600062000236838562000306565b93506200024583858462000360565b620002508362000388565b840190509392505050565b600062000269838562000317565b93506200027883858462000360565b82840190509392505050565b6200028f8162000356565b82525050565b6000620002a48284866200025b565b91508190509392505050565b60006080820190508181036000830152620002cd81878962000228565b9050620002de602083018662000284565b620002ed604083018562000284565b620002fc606083018462000217565b9695505050505050565b600082825260208201905092915050565b600081905092915050565b60006200032f8262000336565b9050919050565b600073ffffffffffffffffffffffffffffffffffffffff82169050919050565b6000819050919050565b82818337600083830152505050565b600080fd5b600080fd5b600080fd5b600080fd5b600080fd5b6000601f19601f8301169050919050565b620003a48162000356565b8114620003b057600080fd5b5056fe60a06040526000600b553480156200001657600080fd5b5060405162003f5038038062003f5083398181016040528101906200003c91906200034c565b6040518060400160405280600981526020017f4465616c546f6b656e00000000000000000000000000000000000000000000008152506040518060400160405280600381526020017f44544e00000000000000000000000000000000000000000000000000000000008152508160009080519060200190620000c0929190620001f0565b508060019080519060200190620000d9929190620001f0565b5050508360099080519060200190620000f4929190620001f0565b50670de0b6b3a7640000836200010b91906200043c565b600781905550670de0b6b3a7640000826200012791906200043c565b6008819055508073ffffffffffffffffffffffffffffffffffffffff1660808173ffffffffffffffffffffffffffffffffffffffff1660601b8152505080601060006101000a81548173ffffffffffffffffffffffffffffffffffffffff021916908373ffffffffffffffffffffffffffffffffffffffff16021790555080600a60006101000a81548173ffffffffffffffffffffffffffffffffffffffff021916908373ffffffffffffffffffffffffffffffffffffffff1602179055505050505062000663565b828054620001fe9062000511565b90600052602060002090601f0160209004810192826200022257600085556200026e565b82601f106200023d57805160ff19168380011785556200026e565b828001600101855582156200026e579182015b828111156200026d57825182559160200191906001019062000250565b5b5090506200027d919062000281565b5090565b5b808211156200029c57600081600090555060010162000282565b5090565b6000620002b7620002b18462000406565b620003dd565b905082815260208101848484011115620002d657620002d56200060f565b5b620002e3848285620004db565b509392505050565b600081519050620002fc816200062f565b92915050565b600082601f8301126200031a57620003196200060a565b5b81516200032c848260208601620002a0565b91505092915050565b600081519050620003468162000649565b92915050565b6000806000806080858703121562000369576200036862000619565b5b600085015167ffffffffffffffff8111156200038a576200038962000614565b5b620003988782880162000302565b9450506020620003ab8782880162000335565b9350506040620003be8782880162000335565b9250506060620003d187828801620002eb565b91505092959194509250565b6000620003e9620003fc565b9050620003f7828262000547565b919050565b6000604051905090565b600067ffffffffffffffff821115620004245762000423620005db565b5b6200042f826200061e565b9050602081019050919050565b60006200044982620004d1565b91506200045683620004d1565b9250817fffffffffffffffffffffffffffffffffffffffffffffffffffffffffffffffff04831182151516156200049257620004916200057d565b5b828202905092915050565b6000620004aa82620004b1565b9050919050565b600073ffffffffffffffffffffffffffffffffffffffff82169050919050565b6000819050919050565b60005b83811015620004fb578082015181840152602081019050620004de565b838111156200050b576000848401525b50505050565b600060028204905060018216806200052a57607f821691505b60208210811415620005415762000540620005ac565b5b50919050565b62000552826200061e565b810181811067ffffffffffffffff82111715620005745762000573620005db565b5b80604052505050565b7f4e487b7100000000000000000000000000000000000000000000000000000000600052601160045260246000fd5b7f4e487b7100000000000000000000000000000000000000000000000000000000600052602260045260246000fd5b7f4e487b7100000000000000000000000000000000000000000000000000000000600052604160045260246000fd5b600080fd5b600080fd5b600080fd5b600080fd5b6000601f19601f8301169050919050565b6200063a816200049d565b81146200064657600080fd5b50565b6200065481620004d1565b81146200066057600080fd5b50565b60805160601c6138a4620006ac60003960008181610cda01528181610dc4015281816111740152818161134901528181611ae001528181611c8e0152611d5201526138a46000f3fe60806040526004361061020f5760003560e01c806395d89b4111610118578063caafffac116100a0578063e23c969b1161006f578063e23c969b1461074b578063e985e9c514610774578063eb9220ab146107b1578063f502236d146107da578063f5cf5274146108055761020f565b8063caafffac146106a1578063cf77c99a146106cc578063de30c3b8146106f5578063e0719564146107205761020f565b8063a709c4fe116100e7578063a709c4fe146105ef578063b1356488146105f9578063b88d4fde14610624578063c7dc8a341461064d578063c87b56dd146106645761020f565b806395d89b41146105475780639905388f14610572578063990581b614610589578063a22cb465146105c65761020f565b806342842e0e1161019b57806370a082311161016a57806370a082311461045d5780637e0bd3771461049a5780637e4dcaa3146104c55780638b5d0ec614610502578063907e19031461051e5761020f565b806342842e0e146103b557806351cd4c2b146103de5780635cd1055c146104095780636352211e146104205761020f565b8063174856c5116101e2578063174856c5146102e25780631d7450ac1461030b57806323b872dd146103365780632541897f1461035f5780633e6ca6aa1461038a5761020f565b806301ffc9a71461021457806306fdde0314610251578063081812fc1461027c578063095ea7b3146102b9575b600080fd5b34801561022057600080fd5b5061023b60048036038101906102369190612cd1565b61082e565b6040516102489190613139565b60405180910390f35b34801561025d57600080fd5b50610266610910565b6040516102739190613154565b60405180910390f35b34801561028857600080fd5b506102a3600480360381019061029e9190612e00565b6109a2565b6040516102b091906130d2565b60405180910390f35b3480156102c557600080fd5b506102e060048036038101906102db9190612c91565b6109e8565b005b3480156102ee57600080fd5b5061030960048036038101906103049190612b09565b610b00565b005b34801561031757600080fd5b50610320610b4c565b60405161032d9190613154565b60405180910390f35b34801561034257600080fd5b5061035d60048036038101906103589190612b76565b610bde565b005b34801561036b57600080fd5b50610374610c10565b6040516103819190613296565b60405180910390f35b34801561039657600080fd5b5061039f610c1a565b6040516103ac91906130d2565b60405180910390f35b3480156103c157600080fd5b506103dc60048036038101906103d79190612b76565b610c44565b005b3480156103ea57600080fd5b506103f3610c76565b6040516104009190613296565b60405180910390f35b34801561041557600080fd5b5061041e610c80565b005b34801561042c57600080fd5b5061044760048036038101906104429190612e00565b610f12565b60405161045491906130d2565b60405180910390f35b34801561046957600080fd5b50610484600480360381019061047f9190612b09565b610f99565b6040516104919190613296565b60405180910390f35b3480156104a657600080fd5b506104af611051565b6040516104bc9190613296565b60405180910390f35b3480156104d157600080fd5b506104ec60048036038101906104e79190612b09565b61105e565b6040516104f99190613296565b60405180910390f35b61051c60048036038101906105179190612d78565b6110a7565b005b34801561052a57600080fd5b5061054560048036038101906105409190612d2b565b61133f565b005b34801561055357600080fd5b5061055c61146a565b6040516105699190613154565b60405180910390f35b34801561057e57600080fd5b506105876114fc565b005b34801561059557600080fd5b506105b060048036038101906105ab9190612e00565b6115f5565b6040516105bd9190613154565b60405180910390f35b3480156105d257600080fd5b506105ed60048036038101906105e89190612c51565b6116a5565b005b6105f76116bb565b005b34801561060557600080fd5b5061060e6117a6565b60405161061b9190613296565b60405180910390f35b34801561063057600080fd5b5061064b60048036038101906106469190612bc9565b6117b0565b005b34801561065957600080fd5b506106626117e2565b005b34801561067057600080fd5b5061068b60048036038101906106869190612e00565b61182f565b6040516106989190613154565b60405180910390f35b3480156106ad57600080fd5b506106b6611942565b6040516106c391906130d2565b60405180910390f35b3480156106d857600080fd5b506106f360048036038101906106ee9190612d2b565b61196c565b005b34801561070157600080fd5b5061070a61198a565b6040516107179190613296565b60405180910390f35b34801561072c57600080fd5b50610735611994565b6040516107429190613296565b60405180910390f35b34801561075757600080fd5b50610772600480360381019061076d9190612d2b565b61199e565b005b34801561078057600080fd5b5061079b60048036038101906107969190612b36565b611a36565b6040516107a89190613139565b60405180910390f35b3480156107bd57600080fd5b506107d860048036038101906107d39190612e00565b611aca565b005b3480156107e657600080fd5b506107ef611adc565b6040516107fc91906130d2565b60405180910390f35b34801561081157600080fd5b5061082c60048036038101906108279190612e00565b611b04565b005b60007f80ac58cd000000000000000000000000000000000000000000000000000000007bffffffffffffffffffffffffffffffffffffffffffffffffffffffff1916827bffffffffffffffffffffffffffffffffffffffffffffffffffffffff191614806108f957507f5b5e139f000000000000000000000000000000000000000000000000000000007bffffffffffffffffffffffffffffffffffffffffffffffffffffffff1916827bffffffffffffffffffffffffffffffffffffffffffffffffffffffff1916145b80610909575061090882611b16565b5b9050919050565b60606000805461091f90613499565b80601f016020809104026020016040519081016040528092919081815260200182805461094b90613499565b80156109985780601f1061096d57610100808354040283529160200191610998565b820191906000526020600020905b81548152906001019060200180831161097b57829003601f168201915b5050505050905090565b60006109ad82611b80565b6004600083815260200190815260200160002060009054906101000a900473ffffffffffffffffffffffffffffffffffffffff169050919050565b60006109f382610f12565b90508073ffffffffffffffffffffffffffffffffffffffff168373ffffffffffffffffffffffffffffffffffffffff161415610a64576040517f08c379a0000000000000000000000000000000000000000000000000000000008152600401610a5b90613256565b60405180910390fd5b8073ffffffffffffffffffffffffffffffffffffffff16610a83611bcb565b73ffffffffffffffffffffffffffffffffffffffff161480610ab25750610ab181610aac611bcb565b611a36565b5b610af1576040517f08c379a0000000000000000000000000000000000000000000000000000000008152600401610ae890613276565b60405180910390fd5b610afb8383611bd3565b505050565b610b08611c8c565b80600a60006101000a81548173ffffffffffffffffffffffffffffffffffffffff021916908373ffffffffffffffffffffffffffffffffffffffff16021790555050565b606060098054610b5b90613499565b80601f0160208091040260200160405190810160405280929190818152602001828054610b8790613499565b8015610bd45780601f10610ba957610100808354040283529160200191610bd4565b820191906000526020600020905b815481529060010190602001808311610bb757829003601f168201915b5050505050905090565b6040517f5585a59600000000000000000000000000000000000000000000000000000000815260040160405180910390fd5b6000600854905090565b6000601060009054906101000a900473ffffffffffffffffffffffffffffffffffffffff16905090565b6040517f5585a59600000000000000000000000000000000000000000000000000000000815260040160405180910390fd5b6000600e54905090565b601060009054906101000a900473ffffffffffffffffffffffffffffffffffffffff1673ffffffffffffffffffffffffffffffffffffffff163373ffffffffffffffffffffffffffffffffffffffff16141580610d2957507f000000000000000000000000000000000000000000000000000000000000000073ffffffffffffffffffffffffffffffffffffffff163373ffffffffffffffffffffffffffffffffffffffff1614155b15610d60576040517f425a301a00000000000000000000000000000000000000000000000000000000815260040160405180910390fd5b600d544211610d9b576040517f384317cd00000000000000000000000000000000000000000000000000000000815260040160405180910390fd5b6000601060009054906101000a900473ffffffffffffffffffffffffffffffffffffffff1690507f0000000000000000000000000000000000000000000000000000000000000000601060006101000a81548173ffffffffffffffffffffffffffffffffffffffff021916908373ffffffffffffffffffffffffffffffffffffffff16021790555060008173ffffffffffffffffffffffffffffffffffffffff16600854604051610e4b906130bd565b60006040518083038185875af1925050503d8060008114610e88576040519150601f19603f3d011682016040523d82523d6000602084013e610e8d565b606091505b5050905080610ec8576040517f63c5bef500000000000000000000000000000000000000000000000000000000815260040160405180910390fd5b600b548273ffffffffffffffffffffffffffffffffffffffff167f98cb3c3a061b0867cd83a9d7ea59a62f762eea504d3c2797053427e010cae7e360405160405180910390a35050565b600080610f1e83611d13565b9050600073ffffffffffffffffffffffffffffffffffffffff168173ffffffffffffffffffffffffffffffffffffffff161415610f90576040517f08c379a0000000000000000000000000000000000000000000000000000000008152600401610f8790613236565b60405180910390fd5b80915050919050565b60008073ffffffffffffffffffffffffffffffffffffffff168273ffffffffffffffffffffffffffffffffffffffff16141561100a576040517f08c379a0000000000000000000000000000000000000000000000000000000008152600401611001906131d6565b60405180910390fd5b600360008373ffffffffffffffffffffffffffffffffffffffff1673ffffffffffffffffffffffffffffffffffffffff168152602001908152602001600020549050919050565b6000601180549050905090565b6000600f60008373ffffffffffffffffffffffffffffffffffffffff1673ffffffffffffffffffffffffffffffffffffffff168152602001908152602001600020549050919050565b6110af611d50565b3373ffffffffffffffffffffffffffffffffffffffff16600a60009054906101000a900473ffffffffffffffffffffffffffffffffffffffff1673ffffffffffffffffffffffffffffffffffffffff1614611136576040517fccb4950b00000000000000000000000000000000000000000000000000000000815260040160405180910390fd5b600854341015611172576040517f13e429bd00000000000000000000000000000000000000000000000000000000815260040160405180910390fd5b7f0000000000000000000000000000000000000000000000000000000000000000600a60006101000a81548173ffffffffffffffffffffffffffffffffffffffff021916908373ffffffffffffffffffffffffffffffffffffffff1602179055506001600b60008282546111e691906132ff565b92505081905550600b54600f60003373ffffffffffffffffffffffffffffffffffffffff1673ffffffffffffffffffffffffffffffffffffffff1681526020019081526020016000208190555033601060006101000a81548173ffffffffffffffffffffffffffffffffffffffff021916908373ffffffffffffffffffffffffffffffffffffffff16021790555082600c8190555081600d81905550806007546112909190613355565b600e819055506112a233600b54611df9565b6112f2600b5486868080601f016020809104026020016040519081016040528093929190818152602001838380828437600081840152601f19601f82011690508083019250505050505050611e17565b600b543373ffffffffffffffffffffffffffffffffffffffff167fa421067b02d4355421ce2db1388160a969b086bb671184c7cf32e41c5a5a60dd60405160405180910390a35050505050565b611347611e8b565b7f000000000000000000000000000000000000000000000000000000000000000073ffffffffffffffffffffffffffffffffffffffff163373ffffffffffffffffffffffffffffffffffffffff1614156113cd576040517f0f6cbd4a00000000000000000000000000000000000000000000000000000000815260040160405180910390fd5b601182829091806001815401808255809150506001900390600052602060002001600090919290919290919290919250919061140a9291906128cb565b50818160405161141b929190613080565b60405180910390203373ffffffffffffffffffffffffffffffffffffffff167f735a8465cb95c1119a0a9c5bfe794f848896e77bf9ba97f9115c49a08e5b54eb60405160405180910390a35050565b60606001805461147990613499565b80601f01602080910402602001604051908101604052809291908181526020018280546114a590613499565b80156114f25780601f106114c7576101008083540402835291602001916114f2565b820191906000526020600020905b8154815290600101906020018083116114d557829003601f168201915b5050505050905090565b611504611c8c565b60085460075461151491906132ff565b47101561154d576040517fff717f2400000000000000000000000000000000000000000000000000000000815260040160405180910390fd5b60003373ffffffffffffffffffffffffffffffffffffffff16600754604051611575906130bd565b60006040518083038185875af1925050503d80600081146115b2576040519150601f19603f3d011682016040523d82523d6000602084013e6115b7565b606091505b50509050806115f2576040517f63c5bef500000000000000000000000000000000000000000000000000000000815260040160405180910390fd5b50565b60606011828154811061160b5761160a613558565b5b90600052602060002001805461162090613499565b80601f016020809104026020016040519081016040528092919081815260200182805461164c90613499565b80156116995780601f1061166e57610100808354040283529160200191611699565b820191906000526020600020905b81548152906001019060200180831161167c57829003601f168201915b50505050509050919050565b6116b76116b0611bcb565b8383611f14565b5050565b6116c3611e8b565b60075434146116fe576040517f0efd464700000000000000000000000000000000000000000000000000000000815260040160405180910390fd5b6000600e54141561173b576040517ff33e9dd700000000000000000000000000000000000000000000000000000000815260040160405180910390fd5b600754600e600082825461174f91906133af565b9250508190555062278d00600c600082825461176b91906132ff565b92505081905550600c54600e547fa0d112ed080c1b1a94b838ad981a23746be2a4670fd4bf157224e72cdd5dfdde60405160405180910390a3565b6000600d54905090565b6040517f5585a59600000000000000000000000000000000000000000000000000000000815260040160405180910390fd5b6117ea611d50565b3373ffffffffffffffffffffffffffffffffffffffff167f72f6ec01d98adf6601285d8b6b5d481ad0b1aa6dd6bbadfff6fbb8232f80861560405160405180910390a2565b606061183a82611b80565b600060066000848152602001908152602001600020805461185a90613499565b80601f016020809104026020016040519081016040528092919081815260200182805461188690613499565b80156118d35780601f106118a8576101008083540402835291602001916118d3565b820191906000526020600020905b8154815290600101906020018083116118b657829003601f168201915b5050505050905060006118e4612081565b90506000815114156118fa57819250505061193d565b60008251111561192f578082604051602001611917929190613099565b6040516020818303038152906040529250505061193d565b61193884612098565b925050505b919050565b6000600a60009054906101000a900473ffffffffffffffffffffffffffffffffffffffff16905090565b611974611c8c565b8181600991906119859291906128cb565b505050565b6000600c54905090565b6000600754905090565b6119a6611c8c565b600c544210156119e2576040517f0fe0fddb00000000000000000000000000000000000000000000000000000000815260040160405180910390fd5b611a32600b5483838080601f016020809104026020016040519081016040528093929190818152602001838380828437600081840152601f19601f82011690508083019250505050505050611e17565b5050565b6000600560008473ffffffffffffffffffffffffffffffffffffffff1673ffffffffffffffffffffffffffffffffffffffff16815260200190815260200160002060008373ffffffffffffffffffffffffffffffffffffffff1673ffffffffffffffffffffffffffffffffffffffff16815260200190815260200160002060009054906101000a900460ff16905092915050565b611ad2611c8c565b8060078190555050565b60007f0000000000000000000000000000000000000000000000000000000000000000905090565b611b0c611c8c565b8060088190555050565b60007f01ffc9a7000000000000000000000000000000000000000000000000000000007bffffffffffffffffffffffffffffffffffffffffffffffffffffffff1916827bffffffffffffffffffffffffffffffffffffffffffffffffffffffff1916149050919050565b611b8981612100565b611bc8576040517f08c379a0000000000000000000000000000000000000000000000000000000008152600401611bbf90613236565b60405180910390fd5b50565b600033905090565b816004600083815260200190815260200160002060006101000a81548173ffffffffffffffffffffffffffffffffffffffff021916908373ffffffffffffffffffffffffffffffffffffffff160217905550808273ffffffffffffffffffffffffffffffffffffffff16611c4683610f12565b73ffffffffffffffffffffffffffffffffffffffff167f8c5be1e5ebec7d5bd14f71427d1e84f3dd0314c0f7b2291e5b200ac8c7c3b92560405160405180910390a45050565b7f000000000000000000000000000000000000000000000000000000000000000073ffffffffffffffffffffffffffffffffffffffff163373ffffffffffffffffffffffffffffffffffffffff1614611d11576040517f8bff009d00000000000000000000000000000000000000000000000000000000815260040160405180910390fd5b565b60006002600083815260200190815260200160002060009054906101000a900473ffffffffffffffffffffffffffffffffffffffff169050919050565b7f000000000000000000000000000000000000000000000000000000000000000073ffffffffffffffffffffffffffffffffffffffff16601060009054906101000a900473ffffffffffffffffffffffffffffffffffffffff1673ffffffffffffffffffffffffffffffffffffffff1614611df7576040517fec34c9ab00000000000000000000000000000000000000000000000000000000815260040160405180910390fd5b565b611e13828260405180602001604052806000815250612141565b5050565b611e2082612100565b611e5f576040517f08c379a0000000000000000000000000000000000000000000000000000000008152600401611e56906131f6565b60405180910390fd5b80600660008481526020019081526020016000209080519060200190611e86929190612951565b505050565b601060009054906101000a900473ffffffffffffffffffffffffffffffffffffffff1673ffffffffffffffffffffffffffffffffffffffff163373ffffffffffffffffffffffffffffffffffffffff1614611f12576040517f8060851f00000000000000000000000000000000000000000000000000000000815260040160405180910390fd5b565b8173ffffffffffffffffffffffffffffffffffffffff168373ffffffffffffffffffffffffffffffffffffffff161415611f83576040517f08c379a0000000000000000000000000000000000000000000000000000000008152600401611f7a906131b6565b60405180910390fd5b80600560008573ffffffffffffffffffffffffffffffffffffffff1673ffffffffffffffffffffffffffffffffffffffff16815260200190815260200160002060008473ffffffffffffffffffffffffffffffffffffffff1673ffffffffffffffffffffffffffffffffffffffff16815260200190815260200160002060006101000a81548160ff0219169083151502179055508173ffffffffffffffffffffffffffffffffffffffff168373ffffffffffffffffffffffffffffffffffffffff167f17307eab39ab6107e8899845ad3d59bd9653f200f220920489ca2b5937696c31836040516120749190613139565b60405180910390a3505050565b606060405180602001604052806000815250905090565b60606120a382611b80565b60006120ad612081565b905060008151116120cd57604051806020016040528060008152506120f8565b806120d78461219c565b6040516020016120e8929190613099565b6040516020818303038152906040525b915050919050565b60008073ffffffffffffffffffffffffffffffffffffffff1661212283611d13565b73ffffffffffffffffffffffffffffffffffffffff1614159050919050565b61214b8383612274565b6121586000848484612492565b612197576040517f08c379a000000000000000000000000000000000000000000000000000000000815260040161218e90613176565b60405180910390fd5b505050565b6060600060016121ab84612629565b01905060008167ffffffffffffffff8111156121ca576121c9613587565b5b6040519080825280601f01601f1916602001820160405280156121fc5781602001600182028036833780820191505090505b509050600082602001820190505b600115612269578080600190039150507f3031323334353637383961626364656600000000000000000000000000000000600a86061a8153600a8581612253576122526134fa565b5b049450600085141561226457612269565b61220a565b819350505050919050565b600073ffffffffffffffffffffffffffffffffffffffff168273ffffffffffffffffffffffffffffffffffffffff1614156122e4576040517f08c379a00000000000000000000000000000000000000000000000000000000081526004016122db90613216565b60405180910390fd5b6122ed81612100565b1561232d576040517f08c379a000000000000000000000000000000000000000000000000000000000815260040161232490613196565b60405180910390fd5b61233b60008383600161277c565b61234481612100565b15612384576040517f08c379a000000000000000000000000000000000000000000000000000000000815260040161237b90613196565b60405180910390fd5b6001600360008473ffffffffffffffffffffffffffffffffffffffff1673ffffffffffffffffffffffffffffffffffffffff16815260200190815260200160002060008282540192505081905550816002600083815260200190815260200160002060006101000a81548173ffffffffffffffffffffffffffffffffffffffff021916908373ffffffffffffffffffffffffffffffffffffffff160217905550808273ffffffffffffffffffffffffffffffffffffffff16600073ffffffffffffffffffffffffffffffffffffffff167fddf252ad1be2c89b69c2b068fc378daa952ba7f163c4a11628f55a4df523b3ef60405160405180910390a461248e6000838360016128a2565b5050565b60006124b38473ffffffffffffffffffffffffffffffffffffffff166128a8565b1561261c578373ffffffffffffffffffffffffffffffffffffffff1663150b7a026124dc611bcb565b8786866040518563ffffffff1660e01b81526004016124fe94939291906130ed565b602060405180830381600087803b15801561251857600080fd5b505af192505050801561254957506040513d601f19601f820116820180604052508101906125469190612cfe565b60015b6125cc573d8060008114612579576040519150601f19603f3d011682016040523d82523d6000602084013e61257e565b606091505b506000815114156125c4576040517f08c379a00000000000000000000000000000000000000000000000000000000081526004016125bb90613176565b60405180910390fd5b805181602001fd5b63150b7a0260e01b7bffffffffffffffffffffffffffffffffffffffffffffffffffffffff1916817bffffffffffffffffffffffffffffffffffffffffffffffffffffffff191614915050612621565b600190505b949350505050565b600080600090507a184f03e93ff9f4daa797ed6e38ed64bf6a1f0100000000000000008310612687577a184f03e93ff9f4daa797ed6e38ed64bf6a1f010000000000000000838161267d5761267c6134fa565b5b0492506040810190505b6d04ee2d6d415b85acef810000000083106126c4576d04ee2d6d415b85acef810000000083816126ba576126b96134fa565b5b0492506020810190505b662386f26fc1000083106126f357662386f26fc1000083816126e9576126e86134fa565b5b0492506010810190505b6305f5e100831061271c576305f5e1008381612712576127116134fa565b5b0492506008810190505b6127108310612741576127108381612737576127366134fa565b5b0492506004810190505b60648310612764576064838161275a576127596134fa565b5b0492506002810190505b600a8310612773576001810190505b80915050919050565b600181111561289c57600073ffffffffffffffffffffffffffffffffffffffff168473ffffffffffffffffffffffffffffffffffffffff16146128105780600360008673ffffffffffffffffffffffffffffffffffffffff1673ffffffffffffffffffffffffffffffffffffffff168152602001908152602001600020600082825461280891906133af565b925050819055505b600073ffffffffffffffffffffffffffffffffffffffff168373ffffffffffffffffffffffffffffffffffffffff161461289b5780600360008573ffffffffffffffffffffffffffffffffffffffff1673ffffffffffffffffffffffffffffffffffffffff168152602001908152602001600020600082825461289391906132ff565b925050819055505b5b50505050565b50505050565b6000808273ffffffffffffffffffffffffffffffffffffffff163b119050919050565b8280546128d790613499565b90600052602060002090601f0160209004810192826128f95760008555612940565b82601f1061291257803560ff1916838001178555612940565b82800160010185558215612940579182015b8281111561293f578235825591602001919060010190612924565b5b50905061294d91906129d7565b5090565b82805461295d90613499565b90600052602060002090601f01602090048101928261297f57600085556129c6565b82601f1061299857805160ff19168380011785556129c6565b828001600101855582156129c6579182015b828111156129c55782518255916020019190600101906129aa565b5b5090506129d391906129d7565b5090565b5b808211156129f05760008160009055506001016129d8565b5090565b600081359050612a0381613812565b92915050565b600081359050612a1881613829565b92915050565b600081359050612a2d81613840565b92915050565b600081519050612a4281613840565b92915050565b60008083601f840112612a5e57612a5d6135bb565b5b8235905067ffffffffffffffff811115612a7b57612a7a6135b6565b5b602083019150836001820283011115612a9757612a966135c0565b5b9250929050565b60008083601f840112612ab457612ab36135bb565b5b8235905067ffffffffffffffff811115612ad157612ad06135b6565b5b602083019150836001820283011115612aed57612aec6135c0565b5b9250929050565b600081359050612b0381613857565b92915050565b600060208284031215612b1f57612b1e6135ca565b5b6000612b2d848285016129f4565b91505092915050565b60008060408385031215612b4d57612b4c6135ca565b5b6000612b5b858286016129f4565b9250506020612b6c858286016129f4565b9150509250929050565b600080600060608486031215612b8f57612b8e6135ca565b5b6000612b9d868287016129f4565b9350506020612bae868287016129f4565b9250506040612bbf86828701612af4565b9150509250925092565b600080600080600060808688031215612be557612be46135ca565b5b6000612bf3888289016129f4565b9550506020612c04888289016129f4565b9450506040612c1588828901612af4565b935050606086013567ffffffffffffffff811115612c3657612c356135c5565b5b612c4288828901612a48565b92509250509295509295909350565b60008060408385031215612c6857612c676135ca565b5b6000612c76858286016129f4565b9250506020612c8785828601612a09565b9150509250929050565b60008060408385031215612ca857612ca76135ca565b5b6000612cb6858286016129f4565b9250506020612cc785828601612af4565b9150509250929050565b600060208284031215612ce757612ce66135ca565b5b6000612cf584828501612a1e565b91505092915050565b600060208284031215612d1457612d136135ca565b5b6000612d2284828501612a33565b91505092915050565b60008060208385031215612d4257612d416135ca565b5b600083013567ffffffffffffffff811115612d6057612d5f6135c5565b5b612d6c85828601612a9e565b92509250509250929050565b600080600080600060808688031215612d9457612d936135ca565b5b600086013567ffffffffffffffff811115612db257612db16135c5565b5b612dbe88828901612a9e565b95509550506020612dd188828901612af4565b9350506040612de288828901612af4565b9250506060612df388828901612af4565b9150509295509295909350565b600060208284031215612e1657612e156135ca565b5b6000612e2484828501612af4565b91505092915050565b612e36816133e3565b82525050565b612e45816133f5565b82525050565b6000612e56826132b1565b612e6081856132c7565b9350612e70818560208601613466565b612e79816135cf565b840191505092915050565b6000612e9083856132f4565b9350612e9d838584613457565b82840190509392505050565b6000612eb4826132bc565b612ebe81856132e3565b9350612ece818560208601613466565b612ed7816135cf565b840191505092915050565b6000612eed826132bc565b612ef781856132f4565b9350612f07818560208601613466565b80840191505092915050565b6000612f206032836132e3565b9150612f2b826135e0565b604082019050919050565b6000612f43601c836132e3565b9150612f4e8261362f565b602082019050919050565b6000612f666019836132e3565b9150612f7182613658565b602082019050919050565b6000612f896029836132e3565b9150612f9482613681565b604082019050919050565b6000612fac602e836132e3565b9150612fb7826136d0565b604082019050919050565b6000612fcf6020836132e3565b9150612fda8261371f565b602082019050919050565b6000612ff26018836132e3565b9150612ffd82613748565b602082019050919050565b60006130156021836132e3565b915061302082613771565b604082019050919050565b60006130386000836132d8565b9150613043826137c0565b600082019050919050565b600061305b603d836132e3565b9150613066826137c3565b604082019050919050565b61307a8161344d565b82525050565b600061308d828486612e84565b91508190509392505050565b60006130a58285612ee2565b91506130b18284612ee2565b91508190509392505050565b60006130c88261302b565b9150819050919050565b60006020820190506130e76000830184612e2d565b92915050565b60006080820190506131026000830187612e2d565b61310f6020830186612e2d565b61311c6040830185613071565b818103606083015261312e8184612e4b565b905095945050505050565b600060208201905061314e6000830184612e3c565b92915050565b6000602082019050818103600083015261316e8184612ea9565b905092915050565b6000602082019050818103600083015261318f81612f13565b9050919050565b600060208201905081810360008301526131af81612f36565b9050919050565b600060208201905081810360008301526131cf81612f59565b9050919050565b600060208201905081810360008301526131ef81612f7c565b9050919050565b6000602082019050818103600083015261320f81612f9f565b9050919050565b6000602082019050818103600083015261322f81612fc2565b9050919050565b6000602082019050818103600083015261324f81612fe5565b9050919050565b6000602082019050818103600083015261326f81613008565b9050919050565b6000602082019050818103600083015261328f8161304e565b9050919050565b60006020820190506132ab6000830184613071565b92915050565b600081519050919050565b600081519050919050565b600082825260208201905092915050565b600081905092915050565b600082825260208201905092915050565b600081905092915050565b600061330a8261344d565b91506133158361344d565b9250827fffffffffffffffffffffffffffffffffffffffffffffffffffffffffffffffff0382111561334a576133496134cb565b5b828201905092915050565b60006133608261344d565b915061336b8361344d565b9250817fffffffffffffffffffffffffffffffffffffffffffffffffffffffffffffffff04831182151516156133a4576133a36134cb565b5b828202905092915050565b60006133ba8261344d565b91506133c58361344d565b9250828210156133d8576133d76134cb565b5b828203905092915050565b60006133ee8261342d565b9050919050565b60008115159050919050565b60007fffffffff0000000000000000000000000000000000000000000000000000000082169050919050565b600073ffffffffffffffffffffffffffffffffffffffff82169050919050565b6000819050919050565b82818337600083830152505050565b60005b83811015613484578082015181840152602081019050613469565b83811115613493576000848401525b50505050565b600060028204905060018216806134b157607f821691505b602082108114156134c5576134c4613529565b5b50919050565b7f4e487b7100000000000000000000000000000000000000000000000000000000600052601160045260246000fd5b7f4e487b7100000000000000000000000000000000000000000000000000000000600052601260045260246000fd5b7f4e487b7100000000000000000000000000000000000000000000000000000000600052602260045260246000fd5b7f4e487b7100000000000000000000000000000000000000000000000000000000600052603260045260246000fd5b7f4e487b7100000000000000000000000000000000000000000000000000000000600052604160045260246000fd5b600080fd5b600080fd5b600080fd5b600080fd5b600080fd5b6000601f19601f8301169050919050565b7f4552433732313a207472616e7366657220746f206e6f6e20455243373231526560008201527f63656976657220696d706c656d656e7465720000000000000000000000000000602082015250565b7f4552433732313a20746f6b656e20616c7265616479206d696e74656400000000600082015250565b7f4552433732313a20617070726f766520746f2063616c6c657200000000000000600082015250565b7f4552433732313a2061646472657373207a65726f206973206e6f74206120766160008201527f6c6964206f776e65720000000000000000000000000000000000000000000000602082015250565b7f45524337323155524953746f726167653a2055524920736574206f66206e6f6e60008201527f6578697374656e7420746f6b656e000000000000000000000000000000000000602082015250565b7f4552433732313a206d696e7420746f20746865207a65726f2061646472657373600082015250565b7f4552433732313a20696e76616c696420746f6b656e2049440000000000000000600082015250565b7f4552433732313a20617070726f76616c20746f2063757272656e74206f776e6560008201527f7200000000000000000000000000000000000000000000000000000000000000602082015250565b50565b7f4552433732313a20617070726f76652063616c6c6572206973206e6f7420746f60008201527f6b656e206f776e6572206f7220617070726f76656420666f7220616c6c000000602082015250565b61381b816133e3565b811461382657600080fd5b50565b613832816133f5565b811461383d57600080fd5b50565b61384981613401565b811461385457600080fd5b50565b6138608161344d565b811461386b57600080fd5b5056fea26469706673582212209620b2d17b38c85b06d448c58df6a636393c4361e83a2823e7712c16b1a7223f64736f6c63430008070033a264697066735822122083d51301623aebf9113377a028ccabfee8578a880a13c19d250196837d69e1b364736f6c63430008070033",
  "devdoc": {
    "kind": "dev",
    "methods": {},
    "version": 1
  },
  "userdoc": {
    "kind": "user",
    "methods": {},
    "version": 1
  },
  "storageLayout": {
    "storage": [],
    "types": null
  }
}