{
  "address": "0xe7f1725E7734CE288F8367e1Bb143E90bb3F0512",
  "abi": [
    {
      "inputs": [],
      "name": "getNoOfProperties",
      "outputs": [
        {
          "internalType": "uint256",
          "name": "",
          "type": "uint256"
        }
      ],
      "stateMutability": "view",
      "type": "function"
    },
    {
      "inputs": [
        {
          "internalType": "uint256",
          "name": "_index",
          "type": "uint256"
        }
      ],
      "name": "getPropertyAddress",
      "outputs": [
        {
          "internalType": "contract Property",
          "name": "",
          "type": "address"
        }
      ],
      "stateMutability": "view",
      "type": "function"
    },
    {
      "inputs": [
        {
          "internalType": "string",
          "name": "_propertyData",
          "type": "string"
        },
        {
          "internalType": "uint256",
          "name": "_propertyRent",
          "type": "uint256"
        },
        {
          "internalType": "uint256",
          "name": "_propertySecurity",
          "type": "uint256"
        }
      ],
      "name": "listProperty",
      "outputs": [],
      "stateMutability": "nonpayable",
      "type": "function"
    }
  ],
  "transactionHash": "0x2ad2a4a90251cf3223c38a67804d8cecf78edc6e370a19d107c0f19caaef06ab",
  "args": [],
  "numDeployments": 1,
  "solcInputHash": "d213f70e82820d94eff8d0075453e3c1",
  "bytecode": "0x608060405234801561001057600080fd5b50613e6f806100206000396000f3fe60806040523480156200001157600080fd5b5060043610620000465760003560e01c806357860f35146200004b5780638498432b146200006d57806394fbb49914620000a3575b600080fd5b62000055620000c3565b604051620000649190620003fa565b60405180910390f35b6200008b6004803603810190620000859190620002e3565b620000cf565b6040516200009a919062000389565b60405180910390f35b620000c16004803603810190620000bb919062000268565b62000119565b005b60008080549050905090565b6000808281548110620000e757620000e662000587565b5b9060005260206000200160009054906101000a900473ffffffffffffffffffffffffffffffffffffffff169050919050565b6000838383336040516200012d90620001c5565b6200013c9493929190620003a6565b604051809103906000f08015801562000159573d6000803e3d6000fd5b5090506000819080600181540180825580915050600190039060005260206000200160009091909190916101000a81548173ffffffffffffffffffffffffffffffffffffffff021916908373ffffffffffffffffffffffffffffffffffffffff16021790555050505050565b613815806200062583390190565b6000620001ea620001e48462000440565b62000417565b905082815260208101848484011115620002095762000208620005ea565b5b620002168482856200050c565b509392505050565b600082601f830112620002365762000235620005e5565b5b813562000248848260208601620001d3565b91505092915050565b60008135905062000262816200060a565b92915050565b600080600060608486031215620002845762000283620005f4565b5b600084013567ffffffffffffffff811115620002a557620002a4620005ef565b5b620002b3868287016200021e565b9350506020620002c68682870162000251565b9250506040620002d98682870162000251565b9150509250925092565b600060208284031215620002fc57620002fb620005f4565b5b60006200030c8482850162000251565b91505092915050565b620003208162000492565b82525050565b6200033181620004d0565b82525050565b6000620003448262000476565b62000350818562000481565b9350620003628185602086016200051b565b6200036d81620005f9565b840191505092915050565b6200038381620004c6565b82525050565b6000602082019050620003a0600083018462000326565b92915050565b60006080820190508181036000830152620003c2818762000337565b9050620003d3602083018662000378565b620003e2604083018562000378565b620003f1606083018462000315565b95945050505050565b600060208201905062000411600083018462000378565b92915050565b60006200042362000436565b905062000431828262000551565b919050565b6000604051905090565b600067ffffffffffffffff8211156200045e576200045d620005b6565b5b6200046982620005f9565b9050602081019050919050565b600081519050919050565b600082825260208201905092915050565b60006200049f82620004a6565b9050919050565b600073ffffffffffffffffffffffffffffffffffffffff82169050919050565b6000819050919050565b6000620004dd82620004e4565b9050919050565b6000620004f182620004f8565b9050919050565b60006200050582620004a6565b9050919050565b82818337600083830152505050565b60005b838110156200053b5780820151818401526020810190506200051e565b838111156200054b576000848401525b50505050565b6200055c82620005f9565b810181811067ffffffffffffffff821117156200057e576200057d620005b6565b5b80604052505050565b7f4e487b7100000000000000000000000000000000000000000000000000000000600052603260045260246000fd5b7f4e487b7100000000000000000000000000000000000000000000000000000000600052604160045260246000fd5b600080fd5b600080fd5b600080fd5b600080fd5b6000601f19601f8301169050919050565b6200061581620004c6565b81146200062157600080fd5b5056fe60e06040526000600860006101000a81548160ff0219169083151502179055506000600860016101000a81548160ff02191690831515021790555060006009553480156200004c57600080fd5b506040516200381538038062003815833981810160405281019062000072919062000343565b6040518060400160405280600981526020017f4465616c546f6b656e00000000000000000000000000000000000000000000008152506040518060400160405280600381526020017f44544e00000000000000000000000000000000000000000000000000000000008152508160009080519060200190620000f6929190620001e7565b5080600190805190602001906200010f929190620001e7565b50505083600790805190602001906200012a929190620001e7565b50670de0b6b3a76400008362000141919062000433565b60808181525050670de0b6b3a7640000826200015e919062000433565b60a081815250508073ffffffffffffffffffffffffffffffffffffffff1660c08173ffffffffffffffffffffffffffffffffffffffff1660601b8152505080600c60006101000a81548173ffffffffffffffffffffffffffffffffffffffff021916908373ffffffffffffffffffffffffffffffffffffffff160217905550505050506200065a565b828054620001f59062000508565b90600052602060002090601f01602090048101928262000219576000855562000265565b82601f106200023457805160ff191683800117855562000265565b8280016001018555821562000265579182015b828111156200026457825182559160200191906001019062000247565b5b50905062000274919062000278565b5090565b5b808211156200029357600081600090555060010162000279565b5090565b6000620002ae620002a884620003fd565b620003d4565b905082815260208101848484011115620002cd57620002cc62000606565b5b620002da848285620004d2565b509392505050565b600081519050620002f38162000626565b92915050565b600082601f83011262000311576200031062000601565b5b81516200032384826020860162000297565b91505092915050565b6000815190506200033d8162000640565b92915050565b6000806000806080858703121562000360576200035f62000610565b5b600085015167ffffffffffffffff8111156200038157620003806200060b565b5b6200038f87828801620002f9565b9450506020620003a2878288016200032c565b9350506040620003b5878288016200032c565b9250506060620003c887828801620002e2565b91505092959194509250565b6000620003e0620003f3565b9050620003ee82826200053e565b919050565b6000604051905090565b600067ffffffffffffffff8211156200041b576200041a620005d2565b5b620004268262000615565b9050602081019050919050565b60006200044082620004c8565b91506200044d83620004c8565b9250817fffffffffffffffffffffffffffffffffffffffffffffffffffffffffffffffff048311821515161562000489576200048862000574565b5b828202905092915050565b6000620004a182620004a8565b9050919050565b600073ffffffffffffffffffffffffffffffffffffffff82169050919050565b6000819050919050565b60005b83811015620004f2578082015181840152602081019050620004d5565b8381111562000502576000848401525b50505050565b600060028204905060018216806200052157607f821691505b60208210811415620005385762000537620005a3565b5b50919050565b620005498262000615565b810181811067ffffffffffffffff821117156200056b576200056a620005d2565b5b80604052505050565b7f4e487b7100000000000000000000000000000000000000000000000000000000600052601160045260246000fd5b7f4e487b7100000000000000000000000000000000000000000000000000000000600052602260045260246000fd5b7f4e487b7100000000000000000000000000000000000000000000000000000000600052604160045260246000fd5b600080fd5b600080fd5b600080fd5b600080fd5b6000601f19601f8301169050919050565b620006318162000494565b81146200063d57600080fd5b50565b6200064b81620004c8565b81146200065757600080fd5b50565b60805160a05160c05160601c613142620006d360003960008181610cb901528181610d680152818161149401528181611630015261183101526000818161093401528181610b9401528181610de201526110900152600081816110b10152818161112e015281816111f901526113c101526131426000f3fe6080604052600436106101815760003560e01c806370a08231116100d1578063b62dad4f1161008a578063e071956411610064578063e071956414610554578063e23c969b1461057f578063e985e9c5146105a8578063f502236d146105e557610181565b8063b62dad4f146104d7578063b88d4fde146104ee578063c87b56dd1461051757610181565b806370a08231146103fc578063907e19031461043957806395d89b41146104625780639905388f1461048d578063a22cb465146104a4578063a709c4fe146104cd57610181565b806323b872dd1161013e57806342842e0e1161011857806342842e0e1461032e57806355fd83e5146103575780635cd1055c146103945780636352211e146103bf57610181565b806323b872dd146102af5780632541897f146102d85780633e6ca6aa1461030357610181565b806301ffc9a71461018657806306fdde03146101c3578063081812fc146101ee578063095ea7b31461022b5780631bc89f14146102545780631d7450ac14610284575b600080fd5b34801561019257600080fd5b506101ad60048036038101906101a89190612607565b610610565b6040516101ba91906129a5565b60405180910390f35b3480156101cf57600080fd5b506101d86106f2565b6040516101e591906129c0565b60405180910390f35b3480156101fa57600080fd5b50610215600480360381019061021091906126aa565b610784565b604051610222919061293e565b60405180910390f35b34801561023757600080fd5b50610252600480360381019061024d91906125c7565b6107ca565b005b61026e60048036038101906102699190612661565b6108e2565b60405161027b91906129a5565b60405180910390f35b34801561029057600080fd5b50610299610acc565b6040516102a691906129c0565b60405180910390f35b3480156102bb57600080fd5b506102d660048036038101906102d191906124ac565b610b5e565b005b3480156102e457600080fd5b506102ed610b90565b6040516102fa9190612b02565b60405180910390f35b34801561030f57600080fd5b50610318610bb8565b604051610325919061293e565b60405180910390f35b34801561033a57600080fd5b50610355600480360381019061035091906124ac565b610be2565b005b34801561036357600080fd5b5061037e600480360381019061037991906126aa565b610c14565b60405161038b919061293e565b60405180910390f35b3480156103a057600080fd5b506103a9610c5c565b6040516103b691906129a5565b60405180910390f35b3480156103cb57600080fd5b506103e660048036038101906103e191906126aa565b610e93565b6040516103f3919061293e565b60405180910390f35b34801561040857600080fd5b50610423600480360381019061041e919061243f565b610f1a565b6040516104309190612b02565b60405180910390f35b34801561044557600080fd5b50610460600480360381019061045b9190612661565b610fd2565b005b34801561046e57600080fd5b50610477610ff4565b60405161048491906129c0565b60405180910390f35b34801561049957600080fd5b506104a2611086565b005b3480156104b057600080fd5b506104cb60048036038101906104c69190612587565b6111d9565b005b6104d56111ef565b005b3480156104e357600080fd5b506104ec611253565b005b3480156104fa57600080fd5b50610515600480360381019061051091906124ff565b611278565b005b34801561052357600080fd5b5061053e600480360381019061053991906126aa565b6112aa565b60405161054b91906129c0565b60405180910390f35b34801561056057600080fd5b506105696113bd565b6040516105769190612b02565b60405180910390f35b34801561058b57600080fd5b506105a660048036038101906105a19190612661565b6113e5565b005b3480156105b457600080fd5b506105cf60048036038101906105ca919061246c565b6113fc565b6040516105dc91906129a5565b60405180910390f35b3480156105f157600080fd5b506105fa611490565b604051610607919061293e565b60405180910390f35b60007f80ac58cd000000000000000000000000000000000000000000000000000000007bffffffffffffffffffffffffffffffffffffffffffffffffffffffff1916827bffffffffffffffffffffffffffffffffffffffffffffffffffffffff191614806106db57507f5b5e139f000000000000000000000000000000000000000000000000000000007bffffffffffffffffffffffffffffffffffffffffffffffffffffffff1916827bffffffffffffffffffffffffffffffffffffffffffffffffffffffff1916145b806106eb57506106ea826114b8565b5b9050919050565b60606000805461070190612d01565b80601f016020809104026020016040519081016040528092919081815260200182805461072d90612d01565b801561077a5780601f1061074f5761010080835404028352916020019161077a565b820191906000526020600020905b81548152906001019060200180831161075d57829003601f168201915b5050505050905090565b600061078f82611522565b6004600083815260200190815260200160002060009054906101000a900473ffffffffffffffffffffffffffffffffffffffff169050919050565b60006107d582610e93565b90508073ffffffffffffffffffffffffffffffffffffffff168373ffffffffffffffffffffffffffffffffffffffff161415610846576040517f08c379a000000000000000000000000000000000000000000000000000000000815260040161083d90612ac2565b60405180910390fd5b8073ffffffffffffffffffffffffffffffffffffffff1661086561156d565b73ffffffffffffffffffffffffffffffffffffffff16148061089457506108938161088e61156d565b6113fc565b5b6108d3576040517f08c379a00000000000000000000000000000000000000000000000000000000081526004016108ca90612ae2565b60405180910390fd5b6108dd8383611575565b505050565b60006108ec61162e565b600860009054906101000a900460ff16610932576040517fccb4950b00000000000000000000000000000000000000000000000000000000815260040160405180910390fd5b7f000000000000000000000000000000000000000000000000000000000000000034101561098c576040517f13e429bd00000000000000000000000000000000000000000000000000000000815260040160405180910390fd5b6000600860006101000a81548160ff0219169083151502179055506001600960008282546109ba9190612bc1565b92505081905550600954600a60003373ffffffffffffffffffffffffffffffffffffffff1673ffffffffffffffffffffffffffffffffffffffff16815260200190815260200160002081905550600b339080600181540180825580915050600190039060005260206000200160009091909190916101000a81548173ffffffffffffffffffffffffffffffffffffffff021916908373ffffffffffffffffffffffffffffffffffffffff16021790555033600c60006101000a81548173ffffffffffffffffffffffffffffffffffffffff021916908373ffffffffffffffffffffffffffffffffffffffff160217905550610ab7336009546116d7565b610ac3600954836116f5565b60019050919050565b606060078054610adb90612d01565b80601f0160208091040260200160405190810160405280929190818152602001828054610b0790612d01565b8015610b545780601f10610b2957610100808354040283529160200191610b54565b820191906000526020600020905b815481529060010190602001808311610b3757829003601f168201915b5050505050905090565b6040517f5585a59600000000000000000000000000000000000000000000000000000000815260040160405180910390fd5b60007f0000000000000000000000000000000000000000000000000000000000000000905090565b6000600c60009054906101000a900473ffffffffffffffffffffffffffffffffffffffff16905090565b6040517f5585a59600000000000000000000000000000000000000000000000000000000815260040160405180910390fd5b6000600b8281548110610c2a57610c29612df1565b5b9060005260206000200160009054906101000a900473ffffffffffffffffffffffffffffffffffffffff169050919050565b6000600c60009054906101000a900473ffffffffffffffffffffffffffffffffffffffff1673ffffffffffffffffffffffffffffffffffffffff163373ffffffffffffffffffffffffffffffffffffffff1614158015610d0857507f000000000000000000000000000000000000000000000000000000000000000073ffffffffffffffffffffffffffffffffffffffff163373ffffffffffffffffffffffffffffffffffffffff1614155b15610d3f576040517f425a301a00000000000000000000000000000000000000000000000000000000815260040160405180910390fd5b6000600c60009054906101000a900473ffffffffffffffffffffffffffffffffffffffff1690507f0000000000000000000000000000000000000000000000000000000000000000600c60006101000a81548173ffffffffffffffffffffffffffffffffffffffff021916908373ffffffffffffffffffffffffffffffffffffffff16021790555060008173ffffffffffffffffffffffffffffffffffffffff167f0000000000000000000000000000000000000000000000000000000000000000604051610e0d90612929565b60006040518083038185875af1925050503d8060008114610e4a576040519150601f19603f3d011682016040523d82523d6000602084013e610e4f565b606091505b5050905080610e8a576040517f63c5bef500000000000000000000000000000000000000000000000000000000815260040160405180910390fd5b60019250505090565b600080610e9f83611769565b9050600073ffffffffffffffffffffffffffffffffffffffff168173ffffffffffffffffffffffffffffffffffffffff161415610f11576040517f08c379a0000000000000000000000000000000000000000000000000000000008152600401610f0890612aa2565b60405180910390fd5b80915050919050565b60008073ffffffffffffffffffffffffffffffffffffffff168273ffffffffffffffffffffffffffffffffffffffff161415610f8b576040517f08c379a0000000000000000000000000000000000000000000000000000000008152600401610f8290612a42565b60405180910390fd5b600360008373ffffffffffffffffffffffffffffffffffffffff1673ffffffffffffffffffffffffffffffffffffffff168152602001908152602001600020549050919050565b610fda6117a6565b8060079080519060200190610ff092919061226d565b5050565b60606001805461100390612d01565b80601f016020809104026020016040519081016040528092919081815260200182805461102f90612d01565b801561107c5780601f106110515761010080835404028352916020019161107c565b820191906000526020600020905b81548152906001019060200180831161105f57829003601f168201915b5050505050905090565b61108e61182f565b7f00000000000000000000000000000000000000000000000000000000000000007f00000000000000000000000000000000000000000000000000000000000000006110da9190612bc1565b471015611113576040517fff717f2400000000000000000000000000000000000000000000000000000000815260040160405180910390fd5b60003373ffffffffffffffffffffffffffffffffffffffff167f000000000000000000000000000000000000000000000000000000000000000060405161115990612929565b60006040518083038185875af1925050503d8060008114611196576040519150601f19603f3d011682016040523d82523d6000602084013e61119b565b606091505b50509050806111d6576040517f63c5bef500000000000000000000000000000000000000000000000000000000815260040160405180910390fd5b50565b6111eb6111e461156d565b83836118b6565b5050565b6111f76117a6565b7f0000000000000000000000000000000000000000000000000000000000000000341015611251576040517f0efd464700000000000000000000000000000000000000000000000000000000815260040160405180910390fd5b565b61125b61182f565b6001600860006101000a81548160ff021916908315150217905550565b6040517f5585a59600000000000000000000000000000000000000000000000000000000815260040160405180910390fd5b60606112b582611522565b60006006600084815260200190815260200160002080546112d590612d01565b80601f016020809104026020016040519081016040528092919081815260200182805461130190612d01565b801561134e5780601f106113235761010080835404028352916020019161134e565b820191906000526020600020905b81548152906001019060200180831161133157829003601f168201915b50505050509050600061135f611a23565b90506000815114156113755781925050506113b8565b6000825111156113aa578082604051602001611392929190612905565b604051602081830303815290604052925050506113b8565b6113b384611a3a565b925050505b919050565b60007f0000000000000000000000000000000000000000000000000000000000000000905090565b6113ed61182f565b6113f9600954826116f5565b50565b6000600560008473ffffffffffffffffffffffffffffffffffffffff1673ffffffffffffffffffffffffffffffffffffffff16815260200190815260200160002060008373ffffffffffffffffffffffffffffffffffffffff1673ffffffffffffffffffffffffffffffffffffffff16815260200190815260200160002060009054906101000a900460ff16905092915050565b60007f0000000000000000000000000000000000000000000000000000000000000000905090565b60007f01ffc9a7000000000000000000000000000000000000000000000000000000007bffffffffffffffffffffffffffffffffffffffffffffffffffffffff1916827bffffffffffffffffffffffffffffffffffffffffffffffffffffffff1916149050919050565b61152b81611aa2565b61156a576040517f08c379a000000000000000000000000000000000000000000000000000000000815260040161156190612aa2565b60405180910390fd5b50565b600033905090565b816004600083815260200190815260200160002060006101000a81548173ffffffffffffffffffffffffffffffffffffffff021916908373ffffffffffffffffffffffffffffffffffffffff160217905550808273ffffffffffffffffffffffffffffffffffffffff166115e883610e93565b73ffffffffffffffffffffffffffffffffffffffff167f8c5be1e5ebec7d5bd14f71427d1e84f3dd0314c0f7b2291e5b200ac8c7c3b92560405160405180910390a45050565b7f000000000000000000000000000000000000000000000000000000000000000073ffffffffffffffffffffffffffffffffffffffff16600c60009054906101000a900473ffffffffffffffffffffffffffffffffffffffff1673ffffffffffffffffffffffffffffffffffffffff16146116d5576040517fec34c9ab00000000000000000000000000000000000000000000000000000000815260040160405180910390fd5b565b6116f1828260405180602001604052806000815250611ae3565b5050565b6116fe82611aa2565b61173d576040517f08c379a000000000000000000000000000000000000000000000000000000000815260040161173490612a62565b60405180910390fd5b8060066000848152602001908152602001600020908051906020019061176492919061226d565b505050565b60006002600083815260200190815260200160002060009054906101000a900473ffffffffffffffffffffffffffffffffffffffff169050919050565b600c60009054906101000a900473ffffffffffffffffffffffffffffffffffffffff1673ffffffffffffffffffffffffffffffffffffffff163373ffffffffffffffffffffffffffffffffffffffff161461182d576040517f8060851f00000000000000000000000000000000000000000000000000000000815260040160405180910390fd5b565b7f000000000000000000000000000000000000000000000000000000000000000073ffffffffffffffffffffffffffffffffffffffff163373ffffffffffffffffffffffffffffffffffffffff16146118b4576040517f8bff009d00000000000000000000000000000000000000000000000000000000815260040160405180910390fd5b565b8173ffffffffffffffffffffffffffffffffffffffff168373ffffffffffffffffffffffffffffffffffffffff161415611925576040517f08c379a000000000000000000000000000000000000000000000000000000000815260040161191c90612a22565b60405180910390fd5b80600560008573ffffffffffffffffffffffffffffffffffffffff1673ffffffffffffffffffffffffffffffffffffffff16815260200190815260200160002060008473ffffffffffffffffffffffffffffffffffffffff1673ffffffffffffffffffffffffffffffffffffffff16815260200190815260200160002060006101000a81548160ff0219169083151502179055508173ffffffffffffffffffffffffffffffffffffffff168373ffffffffffffffffffffffffffffffffffffffff167f17307eab39ab6107e8899845ad3d59bd9653f200f220920489ca2b5937696c3183604051611a1691906129a5565b60405180910390a3505050565b606060405180602001604052806000815250905090565b6060611a4582611522565b6000611a4f611a23565b90506000815111611a6f5760405180602001604052806000815250611a9a565b80611a7984611b3e565b604051602001611a8a929190612905565b6040516020818303038152906040525b915050919050565b60008073ffffffffffffffffffffffffffffffffffffffff16611ac483611769565b73ffffffffffffffffffffffffffffffffffffffff1614159050919050565b611aed8383611c16565b611afa6000848484611e34565b611b39576040517f08c379a0000000000000000000000000000000000000000000000000000000008152600401611b30906129e2565b60405180910390fd5b505050565b606060006001611b4d84611fcb565b01905060008167ffffffffffffffff811115611b6c57611b6b612e20565b5b6040519080825280601f01601f191660200182016040528015611b9e5781602001600182028036833780820191505090505b509050600082602001820190505b600115611c0b578080600190039150507f3031323334353637383961626364656600000000000000000000000000000000600a86061a8153600a8581611bf557611bf4612d93565b5b0494506000851415611c0657611c0b565b611bac565b819350505050919050565b600073ffffffffffffffffffffffffffffffffffffffff168273ffffffffffffffffffffffffffffffffffffffff161415611c86576040517f08c379a0000000000000000000000000000000000000000000000000000000008152600401611c7d90612a82565b60405180910390fd5b611c8f81611aa2565b15611ccf576040517f08c379a0000000000000000000000000000000000000000000000000000000008152600401611cc690612a02565b60405180910390fd5b611cdd60008383600161211e565b611ce681611aa2565b15611d26576040517f08c379a0000000000000000000000000000000000000000000000000000000008152600401611d1d90612a02565b60405180910390fd5b6001600360008473ffffffffffffffffffffffffffffffffffffffff1673ffffffffffffffffffffffffffffffffffffffff16815260200190815260200160002060008282540192505081905550816002600083815260200190815260200160002060006101000a81548173ffffffffffffffffffffffffffffffffffffffff021916908373ffffffffffffffffffffffffffffffffffffffff160217905550808273ffffffffffffffffffffffffffffffffffffffff16600073ffffffffffffffffffffffffffffffffffffffff167fddf252ad1be2c89b69c2b068fc378daa952ba7f163c4a11628f55a4df523b3ef60405160405180910390a4611e30600083836001612244565b5050565b6000611e558473ffffffffffffffffffffffffffffffffffffffff1661224a565b15611fbe578373ffffffffffffffffffffffffffffffffffffffff1663150b7a02611e7e61156d565b8786866040518563ffffffff1660e01b8152600401611ea09493929190612959565b602060405180830381600087803b158015611eba57600080fd5b505af1925050508015611eeb57506040513d601f19601f82011682018060405250810190611ee89190612634565b60015b611f6e573d8060008114611f1b576040519150601f19603f3d011682016040523d82523d6000602084013e611f20565b606091505b50600081511415611f66576040517f08c379a0000000000000000000000000000000000000000000000000000000008152600401611f5d906129e2565b60405180910390fd5b805181602001fd5b63150b7a0260e01b7bffffffffffffffffffffffffffffffffffffffffffffffffffffffff1916817bffffffffffffffffffffffffffffffffffffffffffffffffffffffff191614915050611fc3565b600190505b949350505050565b600080600090507a184f03e93ff9f4daa797ed6e38ed64bf6a1f0100000000000000008310612029577a184f03e93ff9f4daa797ed6e38ed64bf6a1f010000000000000000838161201f5761201e612d93565b5b0492506040810190505b6d04ee2d6d415b85acef81000000008310612066576d04ee2d6d415b85acef8100000000838161205c5761205b612d93565b5b0492506020810190505b662386f26fc10000831061209557662386f26fc10000838161208b5761208a612d93565b5b0492506010810190505b6305f5e10083106120be576305f5e10083816120b4576120b3612d93565b5b0492506008810190505b61271083106120e35761271083816120d9576120d8612d93565b5b0492506004810190505b6064831061210657606483816120fc576120fb612d93565b5b0492506002810190505b600a8310612115576001810190505b80915050919050565b600181111561223e57600073ffffffffffffffffffffffffffffffffffffffff168473ffffffffffffffffffffffffffffffffffffffff16146121b25780600360008673ffffffffffffffffffffffffffffffffffffffff1673ffffffffffffffffffffffffffffffffffffffff16815260200190815260200160002060008282546121aa9190612c17565b925050819055505b600073ffffffffffffffffffffffffffffffffffffffff168373ffffffffffffffffffffffffffffffffffffffff161461223d5780600360008573ffffffffffffffffffffffffffffffffffffffff1673ffffffffffffffffffffffffffffffffffffffff16815260200190815260200160002060008282546122359190612bc1565b925050819055505b5b50505050565b50505050565b6000808273ffffffffffffffffffffffffffffffffffffffff163b119050919050565b82805461227990612d01565b90600052602060002090601f01602090048101928261229b57600085556122e2565b82601f106122b457805160ff19168380011785556122e2565b828001600101855582156122e2579182015b828111156122e15782518255916020019190600101906122c6565b5b5090506122ef91906122f3565b5090565b5b8082111561230c5760008160009055506001016122f4565b5090565b600061232361231e84612b42565b612b1d565b90508281526020810184848401111561233f5761233e612e5e565b5b61234a848285612cbf565b509392505050565b600081359050612361816130b0565b92915050565b600081359050612376816130c7565b92915050565b60008135905061238b816130de565b92915050565b6000815190506123a0816130de565b92915050565b60008083601f8401126123bc576123bb612e54565b5b8235905067ffffffffffffffff8111156123d9576123d8612e4f565b5b6020830191508360018202830111156123f5576123f4612e59565b5b9250929050565b600082601f83011261241157612410612e54565b5b8135612421848260208601612310565b91505092915050565b600081359050612439816130f5565b92915050565b60006020828403121561245557612454612e68565b5b600061246384828501612352565b91505092915050565b6000806040838503121561248357612482612e68565b5b600061249185828601612352565b92505060206124a285828601612352565b9150509250929050565b6000806000606084860312156124c5576124c4612e68565b5b60006124d386828701612352565b93505060206124e486828701612352565b92505060406124f58682870161242a565b9150509250925092565b60008060008060006080868803121561251b5761251a612e68565b5b600061252988828901612352565b955050602061253a88828901612352565b945050604061254b8882890161242a565b935050606086013567ffffffffffffffff81111561256c5761256b612e63565b5b612578888289016123a6565b92509250509295509295909350565b6000806040838503121561259e5761259d612e68565b5b60006125ac85828601612352565b92505060206125bd85828601612367565b9150509250929050565b600080604083850312156125de576125dd612e68565b5b60006125ec85828601612352565b92505060206125fd8582860161242a565b9150509250929050565b60006020828403121561261d5761261c612e68565b5b600061262b8482850161237c565b91505092915050565b60006020828403121561264a57612649612e68565b5b600061265884828501612391565b91505092915050565b60006020828403121561267757612676612e68565b5b600082013567ffffffffffffffff81111561269557612694612e63565b5b6126a1848285016123fc565b91505092915050565b6000602082840312156126c0576126bf612e68565b5b60006126ce8482850161242a565b91505092915050565b6126e081612c4b565b82525050565b6126ef81612c5d565b82525050565b600061270082612b73565b61270a8185612b89565b935061271a818560208601612cce565b61272381612e6d565b840191505092915050565b600061273982612b7e565b6127438185612ba5565b9350612753818560208601612cce565b61275c81612e6d565b840191505092915050565b600061277282612b7e565b61277c8185612bb6565b935061278c818560208601612cce565b80840191505092915050565b60006127a5603283612ba5565b91506127b082612e7e565b604082019050919050565b60006127c8601c83612ba5565b91506127d382612ecd565b602082019050919050565b60006127eb601983612ba5565b91506127f682612ef6565b602082019050919050565b600061280e602983612ba5565b915061281982612f1f565b604082019050919050565b6000612831602e83612ba5565b915061283c82612f6e565b604082019050919050565b6000612854602083612ba5565b915061285f82612fbd565b602082019050919050565b6000612877601883612ba5565b915061288282612fe6565b602082019050919050565b600061289a602183612ba5565b91506128a58261300f565b604082019050919050565b60006128bd600083612b9a565b91506128c88261305e565b600082019050919050565b60006128e0603d83612ba5565b91506128eb82613061565b604082019050919050565b6128ff81612cb5565b82525050565b60006129118285612767565b915061291d8284612767565b91508190509392505050565b6000612934826128b0565b9150819050919050565b600060208201905061295360008301846126d7565b92915050565b600060808201905061296e60008301876126d7565b61297b60208301866126d7565b61298860408301856128f6565b818103606083015261299a81846126f5565b905095945050505050565b60006020820190506129ba60008301846126e6565b92915050565b600060208201905081810360008301526129da818461272e565b905092915050565b600060208201905081810360008301526129fb81612798565b9050919050565b60006020820190508181036000830152612a1b816127bb565b9050919050565b60006020820190508181036000830152612a3b816127de565b9050919050565b60006020820190508181036000830152612a5b81612801565b9050919050565b60006020820190508181036000830152612a7b81612824565b9050919050565b60006020820190508181036000830152612a9b81612847565b9050919050565b60006020820190508181036000830152612abb8161286a565b9050919050565b60006020820190508181036000830152612adb8161288d565b9050919050565b60006020820190508181036000830152612afb816128d3565b9050919050565b6000602082019050612b1760008301846128f6565b92915050565b6000612b27612b38565b9050612b338282612d33565b919050565b6000604051905090565b600067ffffffffffffffff821115612b5d57612b5c612e20565b5b612b6682612e6d565b9050602081019050919050565b600081519050919050565b600081519050919050565b600082825260208201905092915050565b600081905092915050565b600082825260208201905092915050565b600081905092915050565b6000612bcc82612cb5565b9150612bd783612cb5565b9250827fffffffffffffffffffffffffffffffffffffffffffffffffffffffffffffffff03821115612c0c57612c0b612d64565b5b828201905092915050565b6000612c2282612cb5565b9150612c2d83612cb5565b925082821015612c4057612c3f612d64565b5b828203905092915050565b6000612c5682612c95565b9050919050565b60008115159050919050565b60007fffffffff0000000000000000000000000000000000000000000000000000000082169050919050565b600073ffffffffffffffffffffffffffffffffffffffff82169050919050565b6000819050919050565b82818337600083830152505050565b60005b83811015612cec578082015181840152602081019050612cd1565b83811115612cfb576000848401525b50505050565b60006002820490506001821680612d1957607f821691505b60208210811415612d2d57612d2c612dc2565b5b50919050565b612d3c82612e6d565b810181811067ffffffffffffffff82111715612d5b57612d5a612e20565b5b80604052505050565b7f4e487b7100000000000000000000000000000000000000000000000000000000600052601160045260246000fd5b7f4e487b7100000000000000000000000000000000000000000000000000000000600052601260045260246000fd5b7f4e487b7100000000000000000000000000000000000000000000000000000000600052602260045260246000fd5b7f4e487b7100000000000000000000000000000000000000000000000000000000600052603260045260246000fd5b7f4e487b7100000000000000000000000000000000000000000000000000000000600052604160045260246000fd5b600080fd5b600080fd5b600080fd5b600080fd5b600080fd5b600080fd5b6000601f19601f8301169050919050565b7f4552433732313a207472616e7366657220746f206e6f6e20455243373231526560008201527f63656976657220696d706c656d656e7465720000000000000000000000000000602082015250565b7f4552433732313a20746f6b656e20616c7265616479206d696e74656400000000600082015250565b7f4552433732313a20617070726f766520746f2063616c6c657200000000000000600082015250565b7f4552433732313a2061646472657373207a65726f206973206e6f74206120766160008201527f6c6964206f776e65720000000000000000000000000000000000000000000000602082015250565b7f45524337323155524953746f726167653a2055524920736574206f66206e6f6e60008201527f6578697374656e7420746f6b656e000000000000000000000000000000000000602082015250565b7f4552433732313a206d696e7420746f20746865207a65726f2061646472657373600082015250565b7f4552433732313a20696e76616c696420746f6b656e2049440000000000000000600082015250565b7f4552433732313a20617070726f76616c20746f2063757272656e74206f776e6560008201527f7200000000000000000000000000000000000000000000000000000000000000602082015250565b50565b7f4552433732313a20617070726f76652063616c6c6572206973206e6f7420746f60008201527f6b656e206f776e6572206f7220617070726f76656420666f7220616c6c000000602082015250565b6130b981612c4b565b81146130c457600080fd5b50565b6130d081612c5d565b81146130db57600080fd5b50565b6130e781612c69565b81146130f257600080fd5b50565b6130fe81612cb5565b811461310957600080fd5b5056fea264697066735822122092764bb60a79ca52f0e0d3c32ba26f7a09e333cc674fdeef0f78ea755ff86a7964736f6c63430008070033a2646970667358221220c8c823064874a8a547ab565be5c0b84cd6b07a67bcec300ac4d22079199336c864736f6c63430008070033",
  "devdoc": {
    "kind": "dev",
    "methods": {},
    "version": 1
  },
  "userdoc": {
    "kind": "user",
    "methods": {},
    "version": 1
  },
  "storageLayout": {
    "storage": [
      {
        "astId": 3116,
        "contract": "contracts/Property.sol:PropertyFactory",
        "label": "s_totalProperties",
        "offset": 0,
        "slot": "0",
        "type": "t_array(t_contract(Property)3112)dyn_storage"
      }
    ],
    "types": {
      "t_array(t_contract(Property)3112)dyn_storage": {
        "base": "t_contract(Property)3112",
        "encoding": "dynamic_array",
        "label": "contract Property[]",
        "numberOfBytes": "32"
      },
      "t_contract(Property)3112": {
        "encoding": "inplace",
        "label": "contract Property",
        "numberOfBytes": "20"
      }
    }
  }
}